{"contracts/ERC20.sol":{"MyERC20":{"abi":[{"inputs":[{"internalType":"string","name":"_tokenName","type":"string"},{"internalType":"string","name":"_tokenSymbol","type":"string"},{"internalType":"address[]","name":"_recipients","type":"address[]"},{"internalType":"uint256[]","name":"_amounts","type":"uint256[]"}],"stateMutability":"nonpayable","type":"constructor"},{"anonymous":false,"inputs":[{"indexed":true,"internalType":"address","name":"owner","type":"address"},{"indexed":true,"internalType":"address","name":"spender","type":"address"},{"indexed":false,"internalType":"uint256","name":"value","type":"uint256"}],"name":"Approval","type":"event"},{"anonymous":false,"inputs":[{"indexed":false,"internalType":"address","name":"account","type":"address"}],"name":"Paused","type":"event"},{"anonymous":false,"inputs":[{"indexed":true,"internalType":"bytes32","name":"role","type":"bytes32"},{"indexed":true,"internalType":"bytes32","name":"previousAdminRole","type":"bytes32"},{"indexed":true,"internalType":"bytes32","name":"newAdminRole","type":"bytes32"}],"name":"RoleAdminChanged","type":"event"},{"anonymous":false,"inputs":[{"indexed":true,"internalType":"bytes32","name":"role","type":"bytes32"},{"indexed":true,"internalType":"address","name":"account","type":"address"},{"indexed":true,"internalType":"address","name":"sender","type":"address"}],"name":"RoleGranted","type":"event"},{"anonymous":false,"inputs":[{"indexed":true,"internalType":"bytes32","name":"role","type":"bytes32"},{"indexed":true,"internalType":"address","name":"account","type":"address"},{"indexed":true,"internalType":"address","name":"sender","type":"address"}],"name":"RoleRevoked","type":"event"},{"anonymous":false,"inputs":[{"indexed":true,"internalType":"address","name":"from","type":"address"},{"indexed":true,"internalType":"address","name":"to","type":"address"},{"indexed":false,"internalType":"uint256","name":"value","type":"uint256"}],"name":"Transfer","type":"event"},{"anonymous":false,"inputs":[{"indexed":false,"internalType":"address","name":"account","type":"address"}],"name":"Unpaused","type":"event"},{"inputs":[],"name":"BURNER_ROLE","outputs":[{"internalType":"bytes32","name":"","type":"bytes32"}],"stateMutability":"view","type":"function"},{"inputs":[],"name":"DEFAULT_ADMIN_ROLE","outputs":[{"internalType":"bytes32","name":"","type":"bytes32"}],"stateMutability":"view","type":"function"},{"inputs":[],"name":"MINTER_ROLE","outputs":[{"internalType":"bytes32","name":"","type":"bytes32"}],"stateMutability":"view","type":"function"},{"inputs":[],"name":"PAUSER_ROLE","outputs":[{"internalType":"bytes32","name":"","type":"bytes32"}],"stateMutability":"view","type":"function"},{"inputs":[{"internalType":"address","name":"owner","type":"address"},{"internalType":"address","name":"spender","type":"address"}],"name":"allowance","outputs":[{"internalType":"uint256","name":"","type":"uint256"}],"stateMutability":"view","type":"function"},{"inputs":[{"internalType":"address","name":"spender","type":"address"},{"internalType":"uint256","name":"amount","type":"uint256"}],"name":"approve","outputs":[{"internalType":"bool","name":"","type":"bool"}],"stateMutability":"nonpayable","type":"function"},{"inputs":[{"internalType":"address","name":"account","type":"address"}],"name":"balanceOf","outputs":[{"internalType":"uint256","name":"","type":"uint256"}],"stateMutability":"view","type":"function"},{"inputs":[{"internalType":"uint256","name":"amount","type":"uint256"}],"name":"burn","outputs":[],"stateMutability":"nonpayable","type":"function"},{"inputs":[{"internalType":"address","name":"holder","type":"address"},{"internalType":"uint256","name":"_amount","type":"uint256"}],"name":"burn","outputs":[],"stateMutability":"nonpayable","type":"function"},{"inputs":[{"internalType":"address","name":"account","type":"address"},{"internalType":"uint256","name":"amount","type":"uint256"}],"name":"burnFrom","outputs":[],"stateMutability":"nonpayable","type":"function"},{"inputs":[],"name":"decimals","outputs":[{"internalType":"uint8","name":"","type":"uint8"}],"stateMutability":"view","type":"function"},{"inputs":[{"internalType":"address","name":"spender","type":"address"},{"internalType":"uint256","name":"subtractedValue","type":"uint256"}],"name":"decreaseAllowance","outputs":[{"internalType":"bool","name":"","type":"bool"}],"stateMutability":"nonpayable","type":"function"},{"inputs":[{"internalType":"bytes32","name":"role","type":"bytes32"}],"name":"getRoleAdmin","outputs":[{"internalType":"bytes32","name":"","type":"bytes32"}],"stateMutability":"view","type":"function"},{"inputs":[{"internalType":"bytes32","name":"role","type":"bytes32"},{"internalType":"uint256","name":"index","type":"uint256"}],"name":"getRoleMember","outputs":[{"internalType":"address","name":"","type":"address"}],"stateMutability":"view","type":"function"},{"inputs":[{"internalType":"bytes32","name":"role","type":"bytes32"}],"name":"getRoleMemberCount","outputs":[{"internalType":"uint256","name":"","type":"uint256"}],"stateMutability":"view","type":"function"},{"inputs":[{"internalType":"bytes32","name":"role","type":"bytes32"},{"internalType":"address","name":"account","type":"address"}],"name":"grantRole","outputs":[],"stateMutability":"nonpayable","type":"function"},{"inputs":[{"internalType":"bytes32","name":"role","type":"bytes32"},{"internalType":"address","name":"account","type":"address"}],"name":"hasRole","outputs":[{"internalType":"bool","name":"","type":"bool"}],"stateMutability":"view","type":"function"},{"inputs":[{"internalType":"address","name":"spender","type":"address"},{"internalType":"uint256","name":"addedValue","type":"uint256"}],"name":"increaseAllowance","outputs":[{"internalType":"bool","name":"","type":"bool"}],"stateMutability":"nonpayable","type":"function"},{"inputs":[{"internalType":"address","name":"to","type":"address"},{"internalType":"uint256","name":"amount","type":"uint256"}],"name":"mint","outputs":[],"stateMutability":"nonpayable","type":"function"},{"inputs":[],"name":"name","outputs":[{"internalType":"string","name":"","type":"string"}],"stateMutability":"view","type":"function"},{"inputs":[],"name":"pause","outputs":[],"stateMutability":"nonpayable","type":"function"},{"inputs":[],"name":"paused","outputs":[{"internalType":"bool","name":"","type":"bool"}],"stateMutability":"view","type":"function"},{"inputs":[{"internalType":"bytes32","name":"role","type":"bytes32"},{"internalType":"address","name":"account","type":"address"}],"name":"renounceRole","outputs":[],"stateMutability":"nonpayable","type":"function"},{"inputs":[{"internalType":"address","name":"_burner","type":"address"}],"name":"revokeBurnerRole","outputs":[],"stateMutability":"nonpayable","type":"function"},{"inputs":[{"internalType":"address","name":"_minter","type":"address"}],"name":"revokeMinterRole","outputs":[],"stateMutability":"nonpayable","type":"function"},{"inputs":[{"internalType":"bytes32","name":"role","type":"bytes32"},{"internalType":"address","name":"account","type":"address"}],"name":"revokeRole","outputs":[],"stateMutability":"nonpayable","type":"function"},{"inputs":[{"internalType":"address","name":"_burner","type":"address"}],"name":"setupBurnerRole","outputs":[],"stateMutability":"nonpayable","type":"function"},{"inputs":[{"internalType":"address","name":"_minter","type":"address"}],"name":"setupMinterRole","outputs":[],"stateMutability":"nonpayable","type":"function"},{"inputs":[{"internalType":"bytes4","name":"interfaceId","type":"bytes4"}],"name":"supportsInterface","outputs":[{"internalType":"bool","name":"","type":"bool"}],"stateMutability":"view","type":"function"},{"inputs":[],"name":"symbol","outputs":[{"internalType":"string","name":"","type":"string"}],"stateMutability":"view","type":"function"},{"inputs":[],"name":"totalSupply","outputs":[{"internalType":"uint256","name":"","type":"uint256"}],"stateMutability":"view","type":"function"},{"inputs":[{"internalType":"address","name":"to","type":"address"},{"internalType":"uint256","name":"amount","type":"uint256"}],"name":"transfer","outputs":[{"internalType":"bool","name":"","type":"bool"}],"stateMutability":"nonpayable","type":"function"},{"inputs":[{"internalType":"address","name":"from","type":"address"},{"internalType":"address","name":"to","type":"address"},{"internalType":"uint256","name":"amount","type":"uint256"}],"name":"transferFrom","outputs":[{"internalType":"bool","name":"","type":"bool"}],"stateMutability":"nonpayable","type":"function"},{"inputs":[],"name":"unpause","outputs":[],"stateMutability":"nonpayable","type":"function"}],"evm":{"bytecode":{"linkReferences":{},"object":"60806040523480156200001157600080fd5b50604051620025ac380380620025ac833981016040819052620000349162000847565b838381818160059080519060200190620000509291906200062a565b508051620000669060069060208401906200062a565b50506007805460ff191690555062000080600033620000f6565b6200009b6000805160206200258c83398151915233620000f6565b620000c77f65d7a28e3265b37a6474929f336521b332c1681b933f6cb9f3376673440d862a33620000f6565b50620000d590503362000106565b620000e0336200018f565b620000ec828262000222565b5050505062000a12565b6200010282826200035e565b5050565b620001136000336200039c565b620001715760405162461bcd60e51b8152602060048201526024808201527f6d75737420686176652061646d696e20726f6c6520746f207365747570206d69604482015263373a32b960e11b60648201526084015b60405180910390fd5b6200018c6000805160206200258c83398151915282620000f6565b50565b6200019c6000336200039c565b620001f65760405162461bcd60e51b8152602060048201526024808201527f6d75737420686176652061646d696e20726f6c6520746f207365747570206275604482015263393732b960e11b606482015260840162000168565b6200018c7f3c11d16cbaffd01df69ce1c404f6340ee057498f5f00246190ea54220576a84882620000f6565b6200023d6000805160206200258c833981519152336200039c565b6200028b5760405162461bcd60e51b815260206004820152601d60248201527f6d7573742068617665206d696e74657220726f6c6520746f206d696e74000000604482015260640162000168565b8051825114620002ed5760405162461bcd60e51b815260206004820152602660248201527f726563697069656e747320616e6420616d6f756e7473206c656e677468206d696044820152650e6dac2e8c6d60d31b606482015260840162000168565b60005b825181101562000359576200034483828151811062000313576200031362000970565b602002602001015183838151811062000330576200033062000970565b6020026020010151620003c760201b60201c565b8062000350816200099c565b915050620002f0565b505050565b6200037582826200049a60201b62000b2f1760201c565b60008281526001602090815260409091206200035991839062000bb362000522821b17901c565b6000828152602081815260408083206001600160a01b038516845290915290205460ff165b92915050565b6001600160a01b0382166200041f5760405162461bcd60e51b815260206004820152601f60248201527f45524332303a206d696e7420746f20746865207a65726f206164647265737300604482015260640162000168565b6200042d6000838362000540565b8060046000828254620004419190620009ba565b90915550506001600160a01b0382166000818152600260209081526040808320805486019055518481527fddf252ad1be2c89b69c2b068fc378daa952ba7f163c4a11628f55a4df523b3ef910160405180910390a35050565b620004a682826200039c565b62000102576000828152602081815260408083206001600160a01b03851684529091529020805460ff19166001179055620004de3390565b6001600160a01b0316816001600160a01b0316837f2f8788117e7eff1d82e926ec794901d17c78024a50270940304540a733656f0d60405160405180910390a45050565b600062000539836001600160a01b03841662000558565b9392505050565b62000359838383620005aa60201b62000bc81760201c565b6000818152600183016020526040812054620005a157508154600181810184556000848152602080822090930184905584548482528286019093526040902091909155620003c1565b506000620003c1565b620005c28383836200035960201b620005e51760201c565b60075460ff1615620003595760405162461bcd60e51b815260206004820152602a60248201527f45524332305061757361626c653a20746f6b656e207472616e736665722077686044820152691a5b19481c185d5cd95960b21b606482015260840162000168565b8280546200063890620009d5565b90600052602060002090601f0160209004810192826200065c5760008555620006a7565b82601f106200067757805160ff1916838001178555620006a7565b82800160010185558215620006a7579182015b82811115620006a75782518255916020019190600101906200068a565b50620006b5929150620006b9565b5090565b5b80821115620006b55760008155600101620006ba565b634e487b7160e01b600052604160045260246000fd5b604051601f8201601f191681016001600160401b0381118282101715620007115762000711620006d0565b604052919050565b600082601f8301126200072b57600080fd5b81516001600160401b03811115620007475762000747620006d0565b60206200075d601f8301601f19168201620006e6565b82815285828487010111156200077257600080fd5b60005b838110156200079257858101830151828201840152820162000775565b83811115620007a45760008385840101525b5095945050505050565b60006001600160401b03821115620007ca57620007ca620006d0565b5060051b60200190565b600082601f830112620007e657600080fd5b81516020620007ff620007f983620007ae565b620006e6565b82815260059290921b840181019181810190868411156200081f57600080fd5b8286015b848110156200083c578051835291830191830162000823565b509695505050505050565b600080600080608085870312156200085e57600080fd5b84516001600160401b03808211156200087657600080fd5b620008848883890162000719565b95506020915081870151818111156200089c57600080fd5b620008aa89828a0162000719565b955050604087015181811115620008c057600080fd5b8701601f81018913620008d257600080fd5b8051620008e3620007f982620007ae565b81815260059190911b8201840190848101908b8311156200090357600080fd5b928501925b828410156200093a5783516001600160a01b03811681146200092a5760008081fd5b8252928501929085019062000908565b60608b01519097509450505050808211156200095557600080fd5b506200096487828801620007d4565b91505092959194509250565b634e487b7160e01b600052603260045260246000fd5b634e487b7160e01b600052601160045260246000fd5b6000600019821415620009b357620009b362000986565b5060010190565b60008219821115620009d057620009d062000986565b500190565b600181811c90821680620009ea57607f821691505b6020821081141562000a0c57634e487b7160e01b600052602260045260246000fd5b50919050565b611b6a8062000a226000396000f3fe608060405234801561001057600080fd5b50600436106102065760003560e01c806379cc67901161011a578063a6115b69116100ad578063d53913931161007c578063d539139314610452578063d547741f14610467578063dd62ed3e1461047a578063e63ab1e91461048d578063fcce8372146104b457600080fd5b8063a6115b6914610406578063a9059cbb14610419578063c3052ffc1461042c578063ca15c8731461043f57600080fd5b806395d89b41116100e957806395d89b41146103d05780639dc29fac146103d8578063a217fddf146103eb578063a457c2d7146103f357600080fd5b806379cc6790146103775780638456cb591461038a5780639010d07c1461039257806391d14854146103bd57600080fd5b8063313ce5671161019d57806340c10f191161016c57806340c10f191461030a57806342966c681461031d5780635c975abb1461033057806369e2f0fb1461033b57806370a082311461034e57600080fd5b8063313ce567146102cd57806336568abe146102dc57806339509351146102ef5780633f4ba83a1461030257600080fd5b806323b872dd116101d957806323b872dd1461026d578063248a9ca314610280578063282c51f3146102a35780632f2ff15d146102b857600080fd5b806301ffc9a71461020b57806306fdde0314610233578063095ea7b31461024857806318160ddd1461025b575b600080fd5b61021e610219366004611748565b6104c7565b60405190151581526020015b60405180910390f35b61023b6104f2565b60405161022a919061179e565b61021e6102563660046117ed565b610584565b6004545b60405190815260200161022a565b61021e61027b366004611817565b61059c565b61025f61028e366004611853565b60009081526020819052604090206001015490565b61025f600080516020611af583398151915281565b6102cb6102c636600461186c565b6105c0565b005b6040516012815260200161022a565b6102cb6102ea36600461186c565b6105ea565b61021e6102fd3660046117ed565b61066d565b6102cb61068f565b6102cb6103183660046117ed565b610735565b6102cb61032b366004611853565b6107c2565b60075460ff1661021e565b6102cb610349366004611898565b6107cf565b61025f61035c366004611898565b6001600160a01b031660009081526002602052604090205490565b6102cb6103853660046117ed565b61080e565b6102cb610823565b6103a56103a03660046118b3565b6108c7565b6040516001600160a01b03909116815260200161022a565b61021e6103cb36600461186c565b6108e6565b61023b61090f565b6102cb6103e63660046117ed565b61091e565b61025f600081565b61021e6104013660046117ed565b610982565b6102cb610414366004611898565b6109fd565b61021e6104273660046117ed565b610a3c565b6102cb61043a366004611898565b610a4a565b61025f61044d366004611853565b610a89565b61025f600080516020611b1583398151915281565b6102cb61047536600461186c565b610aa0565b61025f6104883660046118d5565b610ac5565b61025f7f65d7a28e3265b37a6474929f336521b332c1681b933f6cb9f3376673440d862a81565b6102cb6104c2366004611898565b610af0565b60006001600160e01b03198216635a05180f60e01b14806104ec57506104ec82610c2e565b92915050565b606060058054610501906118ff565b80601f016020809104026020016040519081016040528092919081815260200182805461052d906118ff565b801561057a5780601f1061054f5761010080835404028352916020019161057a565b820191906000526020600020905b81548152906001019060200180831161055d57829003601f168201915b5050505050905090565b600033610592818585610c63565b5060019392505050565b6000336105aa858285610d87565b6105b5858585610e01565b506001949350505050565b6000828152602081905260409020600101546105db81610fb7565b6105e58383610fc1565b505050565b6001600160a01b038116331461065f5760405162461bcd60e51b815260206004820152602f60248201527f416363657373436f6e74726f6c3a2063616e206f6e6c792072656e6f756e636560448201526e103937b632b9903337b91039b2b63360891b60648201526084015b60405180910390fd5b6106698282610fe3565b5050565b6000336105928185856106808383610ac5565b61068a9190611950565b610c63565b6106b97f65d7a28e3265b37a6474929f336521b332c1681b933f6cb9f3376673440d862a336108e6565b61072b5760405162461bcd60e51b815260206004820152603960248201527f45524332305072657365744d696e7465725061757365723a206d75737420686160448201527f76652070617573657220726f6c6520746f20756e7061757365000000000000006064820152608401610656565b610733611005565b565b61074d600080516020611b15833981519152336108e6565b6107b85760405162461bcd60e51b815260206004820152603660248201527f45524332305072657365744d696e7465725061757365723a206d7573742068616044820152751d99481b5a5b9d195c881c9bdb19481d1bc81b5a5b9d60521b6064820152608401610656565b6106698282611057565b6107cc3382611124565b50565b6107da6000336108e6565b6107f65760405162461bcd60e51b815260040161065690611968565b6107cc600080516020611b1583398151915282610fe3565b610819823383610d87565b6106698282611124565b61084d7f65d7a28e3265b37a6474929f336521b332c1681b933f6cb9f3376673440d862a336108e6565b6108bf5760405162461bcd60e51b815260206004820152603760248201527f45524332305072657365744d696e7465725061757365723a206d75737420686160448201527f76652070617573657220726f6c6520746f2070617573650000000000000000006064820152608401610656565b610733611264565b60008281526001602052604081206108df90836112a1565b9392505050565b6000918252602082815260408084206001600160a01b0393909316845291905290205460ff1690565b606060068054610501906118ff565b610936600080516020611af5833981519152336108e6565b6108195760405162461bcd60e51b815260206004820152601d60248201527f6d7573742068617665206275726e657220726f6c6520746f206275726e0000006044820152606401610656565b600033816109908286610ac5565b9050838110156109f05760405162461bcd60e51b815260206004820152602560248201527f45524332303a2064656372656173656420616c6c6f77616e63652062656c6f77604482015264207a65726f60d81b6064820152608401610656565b6105b58286868403610c63565b610a086000336108e6565b610a245760405162461bcd60e51b8152600401610656906119ac565b6107cc600080516020611af5833981519152826112ad565b600033610592818585610e01565b610a556000336108e6565b610a715760405162461bcd60e51b8152600401610656906119ac565b6107cc600080516020611af583398151915282610fe3565b60008181526001602052604081206104ec906112b7565b600082815260208190526040902060010154610abb81610fb7565b6105e58383610fe3565b6001600160a01b03918216600090815260036020908152604080832093909416825291909152205490565b610afb6000336108e6565b610b175760405162461bcd60e51b815260040161065690611968565b6107cc600080516020611b15833981519152826112ad565b610b3982826108e6565b610669576000828152602081815260408083206001600160a01b03851684529091529020805460ff19166001179055610b6f3390565b6001600160a01b0316816001600160a01b0316837f2f8788117e7eff1d82e926ec794901d17c78024a50270940304540a733656f0d60405160405180910390a45050565b60006108df836001600160a01b0384166112c1565b60075460ff16156105e55760405162461bcd60e51b815260206004820152602a60248201527f45524332305061757361626c653a20746f6b656e207472616e736665722077686044820152691a5b19481c185d5cd95960b21b6064820152608401610656565b60006001600160e01b03198216637965db0b60e01b14806104ec57506301ffc9a760e01b6001600160e01b03198316146104ec565b6001600160a01b038316610cc55760405162461bcd60e51b8152602060048201526024808201527f45524332303a20617070726f76652066726f6d20746865207a65726f206164646044820152637265737360e01b6064820152608401610656565b6001600160a01b038216610d265760405162461bcd60e51b815260206004820152602260248201527f45524332303a20617070726f766520746f20746865207a65726f206164647265604482015261737360f01b6064820152608401610656565b6001600160a01b0383811660008181526003602090815260408083209487168084529482529182902085905590518481527f8c5be1e5ebec7d5bd14f71427d1e84f3dd0314c0f7b2291e5b200ac8c7c3b925910160405180910390a3505050565b6000610d938484610ac5565b90506000198114610dfb5781811015610dee5760405162461bcd60e51b815260206004820152601d60248201527f45524332303a20696e73756666696369656e7420616c6c6f77616e63650000006044820152606401610656565b610dfb8484848403610c63565b50505050565b6001600160a01b038316610e655760405162461bcd60e51b815260206004820152602560248201527f45524332303a207472616e736665722066726f6d20746865207a65726f206164604482015264647265737360d81b6064820152608401610656565b6001600160a01b038216610ec75760405162461bcd60e51b815260206004820152602360248201527f45524332303a207472616e7366657220746f20746865207a65726f206164647260448201526265737360e81b6064820152608401610656565b610ed2838383611310565b6001600160a01b03831660009081526002602052604090205481811015610f4a5760405162461bcd60e51b815260206004820152602660248201527f45524332303a207472616e7366657220616d6f756e7420657863656564732062604482015265616c616e636560d01b6064820152608401610656565b6001600160a01b0380851660008181526002602052604080822086860390559286168082529083902080548601905591517fddf252ad1be2c89b69c2b068fc378daa952ba7f163c4a11628f55a4df523b3ef90610faa9086815260200190565b60405180910390a3610dfb565b6107cc813361131b565b610fcb8282610b2f565b60008281526001602052604090206105e59082610bb3565b610fed8282611374565b60008281526001602052604090206105e590826113d9565b61100d6113ee565b6007805460ff191690557f5db9ee0a495bf2e6ff9c91a7834c1ba4fdd244a5e8aa4e537bd38aeae4b073aa335b6040516001600160a01b03909116815260200160405180910390a1565b6001600160a01b0382166110ad5760405162461bcd60e51b815260206004820152601f60248201527f45524332303a206d696e7420746f20746865207a65726f2061646472657373006044820152606401610656565b6110b960008383611310565b80600460008282546110cb9190611950565b90915550506001600160a01b0382166000818152600260209081526040808320805486019055518481527fddf252ad1be2c89b69c2b068fc378daa952ba7f163c4a11628f55a4df523b3ef910160405180910390a35050565b6001600160a01b0382166111845760405162461bcd60e51b815260206004820152602160248201527f45524332303a206275726e2066726f6d20746865207a65726f206164647265736044820152607360f81b6064820152608401610656565b61119082600083611310565b6001600160a01b038216600090815260026020526040902054818110156112045760405162461bcd60e51b815260206004820152602260248201527f45524332303a206275726e20616d6f756e7420657863656564732062616c616e604482015261636560f01b6064820152608401610656565b6001600160a01b03831660008181526002602090815260408083208686039055600480548790039055518581529192917fddf252ad1be2c89b69c2b068fc378daa952ba7f163c4a11628f55a4df523b3ef910160405180910390a3505050565b61126c611437565b6007805460ff191660011790557f62e78cea01bee320cd4e420270b5ea74000d11b0c9f74754ebdbfc544b05a25861103a3390565b60006108df838361147d565b6106698282610fc1565b60006104ec825490565b6000818152600183016020526040812054611308575081546001818101845560008481526020808220909301849055845484825282860190935260409020919091556104ec565b5060006104ec565b6105e5838383610bc8565b61132582826108e6565b61066957611332816114a7565b61133d8360206114b9565b60405160200161134e9291906119f0565b60408051601f198184030181529082905262461bcd60e51b82526106569160040161179e565b61137e82826108e6565b15610669576000828152602081815260408083206001600160a01b0385168085529252808320805460ff1916905551339285917ff6391f5c32d9c69d2a47ea670b442974b53935d1edc7fd64eb21e047a839171b9190a45050565b60006108df836001600160a01b038416611655565b60075460ff166107335760405162461bcd60e51b815260206004820152601460248201527314185d5cd8589b194e881b9bdd081c185d5cd95960621b6044820152606401610656565b60075460ff16156107335760405162461bcd60e51b815260206004820152601060248201526f14185d5cd8589b194e881c185d5cd95960821b6044820152606401610656565b600082600001828154811061149457611494611a65565b9060005260206000200154905092915050565b60606104ec6001600160a01b03831660145b606060006114c8836002611a7b565b6114d3906002611950565b67ffffffffffffffff8111156114eb576114eb611a9a565b6040519080825280601f01601f191660200182016040528015611515576020820181803683370190505b509050600360fc1b8160008151811061153057611530611a65565b60200101906001600160f81b031916908160001a905350600f60fb1b8160018151811061155f5761155f611a65565b60200101906001600160f81b031916908160001a9053506000611583846002611a7b565b61158e906001611950565b90505b6001811115611606576f181899199a1a9b1b9c1cb0b131b232b360811b85600f16601081106115c2576115c2611a65565b1a60f81b8282815181106115d8576115d8611a65565b60200101906001600160f81b031916908160001a90535060049490941c936115ff81611ab0565b9050611591565b5083156108df5760405162461bcd60e51b815260206004820181905260248201527f537472696e67733a20686578206c656e67746820696e73756666696369656e746044820152606401610656565b6000818152600183016020526040812054801561173e576000611679600183611ac7565b855490915060009061168d90600190611ac7565b90508181146116f25760008660000182815481106116ad576116ad611a65565b90600052602060002001549050808760000184815481106116d0576116d0611a65565b6000918252602080832090910192909255918252600188019052604090208390555b855486908061170357611703611ade565b6001900381819060005260206000200160009055905585600101600086815260200190815260200160002060009055600193505050506104ec565b60009150506104ec565b60006020828403121561175a57600080fd5b81356001600160e01b0319811681146108df57600080fd5b60005b8381101561178d578181015183820152602001611775565b83811115610dfb5750506000910152565b60208152600082518060208401526117bd816040850160208701611772565b601f01601f19169190910160400192915050565b80356001600160a01b03811681146117e857600080fd5b919050565b6000806040838503121561180057600080fd5b611809836117d1565b946020939093013593505050565b60008060006060848603121561182c57600080fd5b611835846117d1565b9250611843602085016117d1565b9150604084013590509250925092565b60006020828403121561186557600080fd5b5035919050565b6000806040838503121561187f57600080fd5b8235915061188f602084016117d1565b90509250929050565b6000602082840312156118aa57600080fd5b6108df826117d1565b600080604083850312156118c657600080fd5b50508035926020909101359150565b600080604083850312156118e857600080fd5b6118f1836117d1565b915061188f602084016117d1565b600181811c9082168061191357607f821691505b6020821081141561193457634e487b7160e01b600052602260045260246000fd5b50919050565b634e487b7160e01b600052601160045260246000fd5b600082198211156119635761196361193a565b500190565b60208082526024908201527f6d75737420686176652061646d696e20726f6c6520746f207365747570206d69604082015263373a32b960e11b606082015260800190565b60208082526024908201527f6d75737420686176652061646d696e20726f6c6520746f207365747570206275604082015263393732b960e11b606082015260800190565b7f416363657373436f6e74726f6c3a206163636f756e7420000000000000000000815260008351611a28816017850160208801611772565b7001034b99036b4b9b9b4b733903937b6329607d1b6017918401918201528351611a59816028840160208801611772565b01602801949350505050565b634e487b7160e01b600052603260045260246000fd5b6000816000190483118215151615611a9557611a9561193a565b500290565b634e487b7160e01b600052604160045260246000fd5b600081611abf57611abf61193a565b506000190190565b600082821015611ad957611ad961193a565b500390565b634e487b7160e01b600052603160045260246000fdfe3c11d16cbaffd01df69ce1c404f6340ee057498f5f00246190ea54220576a8489f2df0fed2c77648de5860a4cc508cd0818c85b8b8a1ab4ceeef8d981c8956a6a26469706673582212203ede8ebaa8672ed1041b596f74726d84c71653159910268e30787cbf8ee9ccdc64736f6c634300080900339f2df0fed2c77648de5860a4cc508cd0818c85b8b8a1ab4ceeef8d981c8956a6","opcodes":"PUSH1 0x80 PUSH1 0x40 MSTORE CALLVALUE DUP1 ISZERO PUSH3 0x11 JUMPI PUSH1 0x0 DUP1 REVERT JUMPDEST POP PUSH1 0x40 MLOAD PUSH3 0x25AC CODESIZE SUB DUP1 PUSH3 0x25AC DUP4 CODECOPY DUP2 ADD PUSH1 0x40 DUP2 SWAP1 MSTORE PUSH3 0x34 SWAP2 PUSH3 0x847 JUMP JUMPDEST DUP4 DUP4 DUP2 DUP2 DUP2 PUSH1 0x5 SWAP1 DUP1 MLOAD SWAP1 PUSH1 0x20 ADD SWAP1 PUSH3 0x50 SWAP3 SWAP2 SWAP1 PUSH3 0x62A JUMP JUMPDEST POP DUP1 MLOAD PUSH3 0x66 SWAP1 PUSH1 0x6 SWAP1 PUSH1 0x20 DUP5 ADD SWAP1 PUSH3 0x62A JUMP JUMPDEST POP POP PUSH1 0x7 DUP1 SLOAD PUSH1 0xFF NOT AND SWAP1 SSTORE POP PUSH3 0x80 PUSH1 0x0 CALLER PUSH3 0xF6 JUMP JUMPDEST PUSH3 0x9B PUSH1 0x0 DUP1 MLOAD PUSH1 0x20 PUSH3 0x258C DUP4 CODECOPY DUP2 MLOAD SWAP2 MSTORE CALLER PUSH3 0xF6 JUMP JUMPDEST PUSH3 0xC7 PUSH32 0x65D7A28E3265B37A6474929F336521B332C1681B933F6CB9F3376673440D862A CALLER PUSH3 0xF6 JUMP JUMPDEST POP PUSH3 0xD5 SWAP1 POP CALLER PUSH3 0x106 JUMP JUMPDEST PUSH3 0xE0 CALLER PUSH3 0x18F JUMP JUMPDEST PUSH3 0xEC DUP3 DUP3 PUSH3 0x222 JUMP JUMPDEST POP POP POP POP PUSH3 0xA12 JUMP JUMPDEST PUSH3 0x102 DUP3 DUP3 PUSH3 0x35E JUMP JUMPDEST POP POP JUMP JUMPDEST PUSH3 0x113 PUSH1 0x0 CALLER PUSH3 0x39C JUMP JUMPDEST PUSH3 0x171 JUMPI PUSH1 0x40 MLOAD PUSH3 0x461BCD PUSH1 0xE5 SHL DUP2 MSTORE PUSH1 0x20 PUSH1 0x4 DUP3 ADD MSTORE PUSH1 0x24 DUP1 DUP3 ADD MSTORE PUSH32 0x6D75737420686176652061646D696E20726F6C6520746F207365747570206D69 PUSH1 0x44 DUP3 ADD MSTORE PUSH4 0x373A32B9 PUSH1 0xE1 SHL PUSH1 0x64 DUP3 ADD MSTORE PUSH1 0x84 ADD JUMPDEST PUSH1 0x40 MLOAD DUP1 SWAP2 SUB SWAP1 REVERT JUMPDEST PUSH3 0x18C PUSH1 0x0 DUP1 MLOAD PUSH1 0x20 PUSH3 0x258C DUP4 CODECOPY DUP2 MLOAD SWAP2 MSTORE DUP3 PUSH3 0xF6 JUMP JUMPDEST POP JUMP JUMPDEST PUSH3 0x19C PUSH1 0x0 CALLER PUSH3 0x39C JUMP JUMPDEST PUSH3 0x1F6 JUMPI PUSH1 0x40 MLOAD PUSH3 0x461BCD PUSH1 0xE5 SHL DUP2 MSTORE PUSH1 0x20 PUSH1 0x4 DUP3 ADD MSTORE PUSH1 0x24 DUP1 DUP3 ADD MSTORE PUSH32 0x6D75737420686176652061646D696E20726F6C6520746F207365747570206275 PUSH1 0x44 DUP3 ADD MSTORE PUSH4 0x393732B9 PUSH1 0xE1 SHL PUSH1 0x64 DUP3 ADD MSTORE PUSH1 0x84 ADD PUSH3 0x168 JUMP JUMPDEST PUSH3 0x18C PUSH32 0x3C11D16CBAFFD01DF69CE1C404F6340EE057498F5F00246190EA54220576A848 DUP3 PUSH3 0xF6 JUMP JUMPDEST PUSH3 0x23D PUSH1 0x0 DUP1 MLOAD PUSH1 0x20 PUSH3 0x258C DUP4 CODECOPY DUP2 MLOAD SWAP2 MSTORE CALLER PUSH3 0x39C JUMP JUMPDEST PUSH3 0x28B JUMPI PUSH1 0x40 MLOAD PUSH3 0x461BCD PUSH1 0xE5 SHL DUP2 MSTORE PUSH1 0x20 PUSH1 0x4 DUP3 ADD MSTORE PUSH1 0x1D PUSH1 0x24 DUP3 ADD MSTORE PUSH32 0x6D7573742068617665206D696E74657220726F6C6520746F206D696E74000000 PUSH1 0x44 DUP3 ADD MSTORE PUSH1 0x64 ADD PUSH3 0x168 JUMP JUMPDEST DUP1 MLOAD DUP3 MLOAD EQ PUSH3 0x2ED JUMPI PUSH1 0x40 MLOAD PUSH3 0x461BCD PUSH1 0xE5 SHL DUP2 MSTORE PUSH1 0x20 PUSH1 0x4 DUP3 ADD MSTORE PUSH1 0x26 PUSH1 0x24 DUP3 ADD MSTORE PUSH32 0x726563697069656E747320616E6420616D6F756E7473206C656E677468206D69 PUSH1 0x44 DUP3 ADD MSTORE PUSH6 0xE6DAC2E8C6D PUSH1 0xD3 SHL PUSH1 0x64 DUP3 ADD MSTORE PUSH1 0x84 ADD PUSH3 0x168 JUMP JUMPDEST PUSH1 0x0 JUMPDEST DUP3 MLOAD DUP2 LT ISZERO PUSH3 0x359 JUMPI PUSH3 0x344 DUP4 DUP3 DUP2 MLOAD DUP2 LT PUSH3 0x313 JUMPI PUSH3 0x313 PUSH3 0x970 JUMP JUMPDEST PUSH1 0x20 MUL PUSH1 0x20 ADD ADD MLOAD DUP4 DUP4 DUP2 MLOAD DUP2 LT PUSH3 0x330 JUMPI PUSH3 0x330 PUSH3 0x970 JUMP JUMPDEST PUSH1 0x20 MUL PUSH1 0x20 ADD ADD MLOAD PUSH3 0x3C7 PUSH1 0x20 SHL PUSH1 0x20 SHR JUMP JUMPDEST DUP1 PUSH3 0x350 DUP2 PUSH3 0x99C JUMP JUMPDEST SWAP2 POP POP PUSH3 0x2F0 JUMP JUMPDEST POP POP POP JUMP JUMPDEST PUSH3 0x375 DUP3 DUP3 PUSH3 0x49A PUSH1 0x20 SHL PUSH3 0xB2F OR PUSH1 0x20 SHR JUMP JUMPDEST PUSH1 0x0 DUP3 DUP2 MSTORE PUSH1 0x1 PUSH1 0x20 SWAP1 DUP2 MSTORE PUSH1 0x40 SWAP1 SWAP2 KECCAK256 PUSH3 0x359 SWAP2 DUP4 SWAP1 PUSH3 0xBB3 PUSH3 0x522 DUP3 SHL OR SWAP1 SHR JUMP JUMPDEST PUSH1 0x0 DUP3 DUP2 MSTORE PUSH1 0x20 DUP2 DUP2 MSTORE PUSH1 0x40 DUP1 DUP4 KECCAK256 PUSH1 0x1 PUSH1 0x1 PUSH1 0xA0 SHL SUB DUP6 AND DUP5 MSTORE SWAP1 SWAP2 MSTORE SWAP1 KECCAK256 SLOAD PUSH1 0xFF AND JUMPDEST SWAP3 SWAP2 POP POP JUMP JUMPDEST PUSH1 0x1 PUSH1 0x1 PUSH1 0xA0 SHL SUB DUP3 AND PUSH3 0x41F JUMPI PUSH1 0x40 MLOAD PUSH3 0x461BCD PUSH1 0xE5 SHL DUP2 MSTORE PUSH1 0x20 PUSH1 0x4 DUP3 ADD MSTORE PUSH1 0x1F PUSH1 0x24 DUP3 ADD MSTORE PUSH32 0x45524332303A206D696E7420746F20746865207A65726F206164647265737300 PUSH1 0x44 DUP3 ADD MSTORE PUSH1 0x64 ADD PUSH3 0x168 JUMP JUMPDEST PUSH3 0x42D PUSH1 0x0 DUP4 DUP4 PUSH3 0x540 JUMP JUMPDEST DUP1 PUSH1 0x4 PUSH1 0x0 DUP3 DUP3 SLOAD PUSH3 0x441 SWAP2 SWAP1 PUSH3 0x9BA JUMP JUMPDEST SWAP1 SWAP2 SSTORE POP POP PUSH1 0x1 PUSH1 0x1 PUSH1 0xA0 SHL SUB DUP3 AND PUSH1 0x0 DUP2 DUP2 MSTORE PUSH1 0x2 PUSH1 0x20 SWAP1 DUP2 MSTORE PUSH1 0x40 DUP1 DUP4 KECCAK256 DUP1 SLOAD DUP7 ADD SWAP1 SSTORE MLOAD DUP5 DUP2 MSTORE PUSH32 0xDDF252AD1BE2C89B69C2B068FC378DAA952BA7F163C4A11628F55A4DF523B3EF SWAP2 ADD PUSH1 0x40 MLOAD DUP1 SWAP2 SUB SWAP1 LOG3 POP POP JUMP JUMPDEST PUSH3 0x4A6 DUP3 DUP3 PUSH3 0x39C JUMP JUMPDEST PUSH3 0x102 JUMPI PUSH1 0x0 DUP3 DUP2 MSTORE PUSH1 0x20 DUP2 DUP2 MSTORE PUSH1 0x40 DUP1 DUP4 KECCAK256 PUSH1 0x1 PUSH1 0x1 PUSH1 0xA0 SHL SUB DUP6 AND DUP5 MSTORE SWAP1 SWAP2 MSTORE SWAP1 KECCAK256 DUP1 SLOAD PUSH1 0xFF NOT AND PUSH1 0x1 OR SWAP1 SSTORE PUSH3 0x4DE CALLER SWAP1 JUMP JUMPDEST PUSH1 0x1 PUSH1 0x1 PUSH1 0xA0 SHL SUB AND DUP2 PUSH1 0x1 PUSH1 0x1 PUSH1 0xA0 SHL SUB AND DUP4 PUSH32 0x2F8788117E7EFF1D82E926EC794901D17C78024A50270940304540A733656F0D PUSH1 0x40 MLOAD PUSH1 0x40 MLOAD DUP1 SWAP2 SUB SWAP1 LOG4 POP POP JUMP JUMPDEST PUSH1 0x0 PUSH3 0x539 DUP4 PUSH1 0x1 PUSH1 0x1 PUSH1 0xA0 SHL SUB DUP5 AND PUSH3 0x558 JUMP JUMPDEST SWAP4 SWAP3 POP POP POP JUMP JUMPDEST PUSH3 0x359 DUP4 DUP4 DUP4 PUSH3 0x5AA PUSH1 0x20 SHL PUSH3 0xBC8 OR PUSH1 0x20 SHR JUMP JUMPDEST PUSH1 0x0 DUP2 DUP2 MSTORE PUSH1 0x1 DUP4 ADD PUSH1 0x20 MSTORE PUSH1 0x40 DUP2 KECCAK256 SLOAD PUSH3 0x5A1 JUMPI POP DUP2 SLOAD PUSH1 0x1 DUP2 DUP2 ADD DUP5 SSTORE PUSH1 0x0 DUP5 DUP2 MSTORE PUSH1 0x20 DUP1 DUP3 KECCAK256 SWAP1 SWAP4 ADD DUP5 SWAP1 SSTORE DUP5 SLOAD DUP5 DUP3 MSTORE DUP3 DUP7 ADD SWAP1 SWAP4 MSTORE PUSH1 0x40 SWAP1 KECCAK256 SWAP2 SWAP1 SWAP2 SSTORE PUSH3 0x3C1 JUMP JUMPDEST POP PUSH1 0x0 PUSH3 0x3C1 JUMP JUMPDEST PUSH3 0x5C2 DUP4 DUP4 DUP4 PUSH3 0x359 PUSH1 0x20 SHL PUSH3 0x5E5 OR PUSH1 0x20 SHR JUMP JUMPDEST PUSH1 0x7 SLOAD PUSH1 0xFF AND ISZERO PUSH3 0x359 JUMPI PUSH1 0x40 MLOAD PUSH3 0x461BCD PUSH1 0xE5 SHL DUP2 MSTORE PUSH1 0x20 PUSH1 0x4 DUP3 ADD MSTORE PUSH1 0x2A PUSH1 0x24 DUP3 ADD MSTORE PUSH32 0x45524332305061757361626C653A20746F6B656E207472616E73666572207768 PUSH1 0x44 DUP3 ADD MSTORE PUSH10 0x1A5B19481C185D5CD959 PUSH1 0xB2 SHL PUSH1 0x64 DUP3 ADD MSTORE PUSH1 0x84 ADD PUSH3 0x168 JUMP JUMPDEST DUP3 DUP1 SLOAD PUSH3 0x638 SWAP1 PUSH3 0x9D5 JUMP JUMPDEST SWAP1 PUSH1 0x0 MSTORE PUSH1 0x20 PUSH1 0x0 KECCAK256 SWAP1 PUSH1 0x1F ADD PUSH1 0x20 SWAP1 DIV DUP2 ADD SWAP3 DUP3 PUSH3 0x65C JUMPI PUSH1 0x0 DUP6 SSTORE PUSH3 0x6A7 JUMP JUMPDEST DUP3 PUSH1 0x1F LT PUSH3 0x677 JUMPI DUP1 MLOAD PUSH1 0xFF NOT AND DUP4 DUP1 ADD OR DUP6 SSTORE PUSH3 0x6A7 JUMP JUMPDEST DUP3 DUP1 ADD PUSH1 0x1 ADD DUP6 SSTORE DUP3 ISZERO PUSH3 0x6A7 JUMPI SWAP2 DUP3 ADD JUMPDEST DUP3 DUP2 GT ISZERO PUSH3 0x6A7 JUMPI DUP3 MLOAD DUP3 SSTORE SWAP2 PUSH1 0x20 ADD SWAP2 SWAP1 PUSH1 0x1 ADD SWAP1 PUSH3 0x68A JUMP JUMPDEST POP PUSH3 0x6B5 SWAP3 SWAP2 POP PUSH3 0x6B9 JUMP JUMPDEST POP SWAP1 JUMP JUMPDEST JUMPDEST DUP1 DUP3 GT ISZERO PUSH3 0x6B5 JUMPI PUSH1 0x0 DUP2 SSTORE PUSH1 0x1 ADD PUSH3 0x6BA JUMP JUMPDEST PUSH4 0x4E487B71 PUSH1 0xE0 SHL PUSH1 0x0 MSTORE PUSH1 0x41 PUSH1 0x4 MSTORE PUSH1 0x24 PUSH1 0x0 REVERT JUMPDEST PUSH1 0x40 MLOAD PUSH1 0x1F DUP3 ADD PUSH1 0x1F NOT AND DUP2 ADD PUSH1 0x1 PUSH1 0x1 PUSH1 0x40 SHL SUB DUP2 GT DUP3 DUP3 LT OR ISZERO PUSH3 0x711 JUMPI PUSH3 0x711 PUSH3 0x6D0 JUMP JUMPDEST PUSH1 0x40 MSTORE SWAP2 SWAP1 POP JUMP JUMPDEST PUSH1 0x0 DUP3 PUSH1 0x1F DUP4 ADD SLT PUSH3 0x72B JUMPI PUSH1 0x0 DUP1 REVERT JUMPDEST DUP2 MLOAD PUSH1 0x1 PUSH1 0x1 PUSH1 0x40 SHL SUB DUP2 GT ISZERO PUSH3 0x747 JUMPI PUSH3 0x747 PUSH3 0x6D0 JUMP JUMPDEST PUSH1 0x20 PUSH3 0x75D PUSH1 0x1F DUP4 ADD PUSH1 0x1F NOT AND DUP3 ADD PUSH3 0x6E6 JUMP JUMPDEST DUP3 DUP2 MSTORE DUP6 DUP3 DUP5 DUP8 ADD ADD GT ISZERO PUSH3 0x772 JUMPI PUSH1 0x0 DUP1 REVERT JUMPDEST PUSH1 0x0 JUMPDEST DUP4 DUP2 LT ISZERO PUSH3 0x792 JUMPI DUP6 DUP2 ADD DUP4 ADD MLOAD DUP3 DUP3 ADD DUP5 ADD MSTORE DUP3 ADD PUSH3 0x775 JUMP JUMPDEST DUP4 DUP2 GT ISZERO PUSH3 0x7A4 JUMPI PUSH1 0x0 DUP4 DUP6 DUP5 ADD ADD MSTORE JUMPDEST POP SWAP6 SWAP5 POP POP POP POP POP JUMP JUMPDEST PUSH1 0x0 PUSH1 0x1 PUSH1 0x1 PUSH1 0x40 SHL SUB DUP3 GT ISZERO PUSH3 0x7CA JUMPI PUSH3 0x7CA PUSH3 0x6D0 JUMP JUMPDEST POP PUSH1 0x5 SHL PUSH1 0x20 ADD SWAP1 JUMP JUMPDEST PUSH1 0x0 DUP3 PUSH1 0x1F DUP4 ADD SLT PUSH3 0x7E6 JUMPI PUSH1 0x0 DUP1 REVERT JUMPDEST DUP2 MLOAD PUSH1 0x20 PUSH3 0x7FF PUSH3 0x7F9 DUP4 PUSH3 0x7AE JUMP JUMPDEST PUSH3 0x6E6 JUMP JUMPDEST DUP3 DUP2 MSTORE PUSH1 0x5 SWAP3 SWAP1 SWAP3 SHL DUP5 ADD DUP2 ADD SWAP2 DUP2 DUP2 ADD SWAP1 DUP7 DUP5 GT ISZERO PUSH3 0x81F JUMPI PUSH1 0x0 DUP1 REVERT JUMPDEST DUP3 DUP7 ADD JUMPDEST DUP5 DUP2 LT ISZERO PUSH3 0x83C JUMPI DUP1 MLOAD DUP4 MSTORE SWAP2 DUP4 ADD SWAP2 DUP4 ADD PUSH3 0x823 JUMP JUMPDEST POP SWAP7 SWAP6 POP POP POP POP POP POP JUMP JUMPDEST PUSH1 0x0 DUP1 PUSH1 0x0 DUP1 PUSH1 0x80 DUP6 DUP8 SUB SLT ISZERO PUSH3 0x85E JUMPI PUSH1 0x0 DUP1 REVERT JUMPDEST DUP5 MLOAD PUSH1 0x1 PUSH1 0x1 PUSH1 0x40 SHL SUB DUP1 DUP3 GT ISZERO PUSH3 0x876 JUMPI PUSH1 0x0 DUP1 REVERT JUMPDEST PUSH3 0x884 DUP9 DUP4 DUP10 ADD PUSH3 0x719 JUMP JUMPDEST SWAP6 POP PUSH1 0x20 SWAP2 POP DUP2 DUP8 ADD MLOAD DUP2 DUP2 GT ISZERO PUSH3 0x89C JUMPI PUSH1 0x0 DUP1 REVERT JUMPDEST PUSH3 0x8AA DUP10 DUP3 DUP11 ADD PUSH3 0x719 JUMP JUMPDEST SWAP6 POP POP PUSH1 0x40 DUP8 ADD MLOAD DUP2 DUP2 GT ISZERO PUSH3 0x8C0 JUMPI PUSH1 0x0 DUP1 REVERT JUMPDEST DUP8 ADD PUSH1 0x1F DUP2 ADD DUP10 SGT PUSH3 0x8D2 JUMPI PUSH1 0x0 DUP1 REVERT JUMPDEST DUP1 MLOAD PUSH3 0x8E3 PUSH3 0x7F9 DUP3 PUSH3 0x7AE JUMP JUMPDEST DUP2 DUP2 MSTORE PUSH1 0x5 SWAP2 SWAP1 SWAP2 SHL DUP3 ADD DUP5 ADD SWAP1 DUP5 DUP2 ADD SWAP1 DUP12 DUP4 GT ISZERO PUSH3 0x903 JUMPI PUSH1 0x0 DUP1 REVERT JUMPDEST SWAP3 DUP6 ADD SWAP3 JUMPDEST DUP3 DUP5 LT ISZERO PUSH3 0x93A JUMPI DUP4 MLOAD PUSH1 0x1 PUSH1 0x1 PUSH1 0xA0 SHL SUB DUP2 AND DUP2 EQ PUSH3 0x92A JUMPI PUSH1 0x0 DUP1 DUP2 REVERT JUMPDEST DUP3 MSTORE SWAP3 DUP6 ADD SWAP3 SWAP1 DUP6 ADD SWAP1 PUSH3 0x908 JUMP JUMPDEST PUSH1 0x60 DUP12 ADD MLOAD SWAP1 SWAP8 POP SWAP5 POP POP POP POP DUP1 DUP3 GT ISZERO PUSH3 0x955 JUMPI PUSH1 0x0 DUP1 REVERT JUMPDEST POP PUSH3 0x964 DUP8 DUP3 DUP9 ADD PUSH3 0x7D4 JUMP JUMPDEST SWAP2 POP POP SWAP3 SWAP6 SWAP2 SWAP5 POP SWAP3 POP JUMP JUMPDEST PUSH4 0x4E487B71 PUSH1 0xE0 SHL PUSH1 0x0 MSTORE PUSH1 0x32 PUSH1 0x4 MSTORE PUSH1 0x24 PUSH1 0x0 REVERT JUMPDEST PUSH4 0x4E487B71 PUSH1 0xE0 SHL PUSH1 0x0 MSTORE PUSH1 0x11 PUSH1 0x4 MSTORE PUSH1 0x24 PUSH1 0x0 REVERT JUMPDEST PUSH1 0x0 PUSH1 0x0 NOT DUP3 EQ ISZERO PUSH3 0x9B3 JUMPI PUSH3 0x9B3 PUSH3 0x986 JUMP JUMPDEST POP PUSH1 0x1 ADD SWAP1 JUMP JUMPDEST PUSH1 0x0 DUP3 NOT DUP3 GT ISZERO PUSH3 0x9D0 JUMPI PUSH3 0x9D0 PUSH3 0x986 JUMP JUMPDEST POP ADD SWAP1 JUMP JUMPDEST PUSH1 0x1 DUP2 DUP2 SHR SWAP1 DUP3 AND DUP1 PUSH3 0x9EA JUMPI PUSH1 0x7F DUP3 AND SWAP2 POP JUMPDEST PUSH1 0x20 DUP3 LT DUP2 EQ ISZERO PUSH3 0xA0C JUMPI PUSH4 0x4E487B71 PUSH1 0xE0 SHL PUSH1 0x0 MSTORE PUSH1 0x22 PUSH1 0x4 MSTORE PUSH1 0x24 PUSH1 0x0 REVERT JUMPDEST POP SWAP2 SWAP1 POP JUMP JUMPDEST PUSH2 0x1B6A DUP1 PUSH3 0xA22 PUSH1 0x0 CODECOPY PUSH1 0x0 RETURN INVALID PUSH1 0x80 PUSH1 0x40 MSTORE CALLVALUE DUP1 ISZERO PUSH2 0x10 JUMPI PUSH1 0x0 DUP1 REVERT JUMPDEST POP PUSH1 0x4 CALLDATASIZE LT PUSH2 0x206 JUMPI PUSH1 0x0 CALLDATALOAD PUSH1 0xE0 SHR DUP1 PUSH4 0x79CC6790 GT PUSH2 0x11A JUMPI DUP1 PUSH4 0xA6115B69 GT PUSH2 0xAD JUMPI DUP1 PUSH4 0xD5391393 GT PUSH2 0x7C JUMPI DUP1 PUSH4 0xD5391393 EQ PUSH2 0x452 JUMPI DUP1 PUSH4 0xD547741F EQ PUSH2 0x467 JUMPI DUP1 PUSH4 0xDD62ED3E EQ PUSH2 0x47A JUMPI DUP1 PUSH4 0xE63AB1E9 EQ PUSH2 0x48D JUMPI DUP1 PUSH4 0xFCCE8372 EQ PUSH2 0x4B4 JUMPI PUSH1 0x0 DUP1 REVERT JUMPDEST DUP1 PUSH4 0xA6115B69 EQ PUSH2 0x406 JUMPI DUP1 PUSH4 0xA9059CBB EQ PUSH2 0x419 JUMPI DUP1 PUSH4 0xC3052FFC EQ PUSH2 0x42C JUMPI DUP1 PUSH4 0xCA15C873 EQ PUSH2 0x43F JUMPI PUSH1 0x0 DUP1 REVERT JUMPDEST DUP1 PUSH4 0x95D89B41 GT PUSH2 0xE9 JUMPI DUP1 PUSH4 0x95D89B41 EQ PUSH2 0x3D0 JUMPI DUP1 PUSH4 0x9DC29FAC EQ PUSH2 0x3D8 JUMPI DUP1 PUSH4 0xA217FDDF EQ PUSH2 0x3EB JUMPI DUP1 PUSH4 0xA457C2D7 EQ PUSH2 0x3F3 JUMPI PUSH1 0x0 DUP1 REVERT JUMPDEST DUP1 PUSH4 0x79CC6790 EQ PUSH2 0x377 JUMPI DUP1 PUSH4 0x8456CB59 EQ PUSH2 0x38A JUMPI DUP1 PUSH4 0x9010D07C EQ PUSH2 0x392 JUMPI DUP1 PUSH4 0x91D14854 EQ PUSH2 0x3BD JUMPI PUSH1 0x0 DUP1 REVERT JUMPDEST DUP1 PUSH4 0x313CE567 GT PUSH2 0x19D JUMPI DUP1 PUSH4 0x40C10F19 GT PUSH2 0x16C JUMPI DUP1 PUSH4 0x40C10F19 EQ PUSH2 0x30A JUMPI DUP1 PUSH4 0x42966C68 EQ PUSH2 0x31D JUMPI DUP1 PUSH4 0x5C975ABB EQ PUSH2 0x330 JUMPI DUP1 PUSH4 0x69E2F0FB EQ PUSH2 0x33B JUMPI DUP1 PUSH4 0x70A08231 EQ PUSH2 0x34E JUMPI PUSH1 0x0 DUP1 REVERT JUMPDEST DUP1 PUSH4 0x313CE567 EQ PUSH2 0x2CD JUMPI DUP1 PUSH4 0x36568ABE EQ PUSH2 0x2DC JUMPI DUP1 PUSH4 0x39509351 EQ PUSH2 0x2EF JUMPI DUP1 PUSH4 0x3F4BA83A EQ PUSH2 0x302 JUMPI PUSH1 0x0 DUP1 REVERT JUMPDEST DUP1 PUSH4 0x23B872DD GT PUSH2 0x1D9 JUMPI DUP1 PUSH4 0x23B872DD EQ PUSH2 0x26D JUMPI DUP1 PUSH4 0x248A9CA3 EQ PUSH2 0x280 JUMPI DUP1 PUSH4 0x282C51F3 EQ PUSH2 0x2A3 JUMPI DUP1 PUSH4 0x2F2FF15D EQ PUSH2 0x2B8 JUMPI PUSH1 0x0 DUP1 REVERT JUMPDEST DUP1 PUSH4 0x1FFC9A7 EQ PUSH2 0x20B JUMPI DUP1 PUSH4 0x6FDDE03 EQ PUSH2 0x233 JUMPI DUP1 PUSH4 0x95EA7B3 EQ PUSH2 0x248 JUMPI DUP1 PUSH4 0x18160DDD EQ PUSH2 0x25B JUMPI JUMPDEST PUSH1 0x0 DUP1 REVERT JUMPDEST PUSH2 0x21E PUSH2 0x219 CALLDATASIZE PUSH1 0x4 PUSH2 0x1748 JUMP JUMPDEST PUSH2 0x4C7 JUMP JUMPDEST PUSH1 0x40 MLOAD SWAP1 ISZERO ISZERO DUP2 MSTORE PUSH1 0x20 ADD JUMPDEST PUSH1 0x40 MLOAD DUP1 SWAP2 SUB SWAP1 RETURN JUMPDEST PUSH2 0x23B PUSH2 0x4F2 JUMP JUMPDEST PUSH1 0x40 MLOAD PUSH2 0x22A SWAP2 SWAP1 PUSH2 0x179E JUMP JUMPDEST PUSH2 0x21E PUSH2 0x256 CALLDATASIZE PUSH1 0x4 PUSH2 0x17ED JUMP JUMPDEST PUSH2 0x584 JUMP JUMPDEST PUSH1 0x4 SLOAD JUMPDEST PUSH1 0x40 MLOAD SWAP1 DUP2 MSTORE PUSH1 0x20 ADD PUSH2 0x22A JUMP JUMPDEST PUSH2 0x21E PUSH2 0x27B CALLDATASIZE PUSH1 0x4 PUSH2 0x1817 JUMP JUMPDEST PUSH2 0x59C JUMP JUMPDEST PUSH2 0x25F PUSH2 0x28E CALLDATASIZE PUSH1 0x4 PUSH2 0x1853 JUMP JUMPDEST PUSH1 0x0 SWAP1 DUP2 MSTORE PUSH1 0x20 DUP2 SWAP1 MSTORE PUSH1 0x40 SWAP1 KECCAK256 PUSH1 0x1 ADD SLOAD SWAP1 JUMP JUMPDEST PUSH2 0x25F PUSH1 0x0 DUP1 MLOAD PUSH1 0x20 PUSH2 0x1AF5 DUP4 CODECOPY DUP2 MLOAD SWAP2 MSTORE DUP2 JUMP JUMPDEST PUSH2 0x2CB PUSH2 0x2C6 CALLDATASIZE PUSH1 0x4 PUSH2 0x186C JUMP JUMPDEST PUSH2 0x5C0 JUMP JUMPDEST STOP JUMPDEST PUSH1 0x40 MLOAD PUSH1 0x12 DUP2 MSTORE PUSH1 0x20 ADD PUSH2 0x22A JUMP JUMPDEST PUSH2 0x2CB PUSH2 0x2EA CALLDATASIZE PUSH1 0x4 PUSH2 0x186C JUMP JUMPDEST PUSH2 0x5EA JUMP JUMPDEST PUSH2 0x21E PUSH2 0x2FD CALLDATASIZE PUSH1 0x4 PUSH2 0x17ED JUMP JUMPDEST PUSH2 0x66D JUMP JUMPDEST PUSH2 0x2CB PUSH2 0x68F JUMP JUMPDEST PUSH2 0x2CB PUSH2 0x318 CALLDATASIZE PUSH1 0x4 PUSH2 0x17ED JUMP JUMPDEST PUSH2 0x735 JUMP JUMPDEST PUSH2 0x2CB PUSH2 0x32B CALLDATASIZE PUSH1 0x4 PUSH2 0x1853 JUMP JUMPDEST PUSH2 0x7C2 JUMP JUMPDEST PUSH1 0x7 SLOAD PUSH1 0xFF AND PUSH2 0x21E JUMP JUMPDEST PUSH2 0x2CB PUSH2 0x349 CALLDATASIZE PUSH1 0x4 PUSH2 0x1898 JUMP JUMPDEST PUSH2 0x7CF JUMP JUMPDEST PUSH2 0x25F PUSH2 0x35C CALLDATASIZE PUSH1 0x4 PUSH2 0x1898 JUMP JUMPDEST PUSH1 0x1 PUSH1 0x1 PUSH1 0xA0 SHL SUB AND PUSH1 0x0 SWAP1 DUP2 MSTORE PUSH1 0x2 PUSH1 0x20 MSTORE PUSH1 0x40 SWAP1 KECCAK256 SLOAD SWAP1 JUMP JUMPDEST PUSH2 0x2CB PUSH2 0x385 CALLDATASIZE PUSH1 0x4 PUSH2 0x17ED JUMP JUMPDEST PUSH2 0x80E JUMP JUMPDEST PUSH2 0x2CB PUSH2 0x823 JUMP JUMPDEST PUSH2 0x3A5 PUSH2 0x3A0 CALLDATASIZE PUSH1 0x4 PUSH2 0x18B3 JUMP JUMPDEST PUSH2 0x8C7 JUMP JUMPDEST PUSH1 0x40 MLOAD PUSH1 0x1 PUSH1 0x1 PUSH1 0xA0 SHL SUB SWAP1 SWAP2 AND DUP2 MSTORE PUSH1 0x20 ADD PUSH2 0x22A JUMP JUMPDEST PUSH2 0x21E PUSH2 0x3CB CALLDATASIZE PUSH1 0x4 PUSH2 0x186C JUMP JUMPDEST PUSH2 0x8E6 JUMP JUMPDEST PUSH2 0x23B PUSH2 0x90F JUMP JUMPDEST PUSH2 0x2CB PUSH2 0x3E6 CALLDATASIZE PUSH1 0x4 PUSH2 0x17ED JUMP JUMPDEST PUSH2 0x91E JUMP JUMPDEST PUSH2 0x25F PUSH1 0x0 DUP2 JUMP JUMPDEST PUSH2 0x21E PUSH2 0x401 CALLDATASIZE PUSH1 0x4 PUSH2 0x17ED JUMP JUMPDEST PUSH2 0x982 JUMP JUMPDEST PUSH2 0x2CB PUSH2 0x414 CALLDATASIZE PUSH1 0x4 PUSH2 0x1898 JUMP JUMPDEST PUSH2 0x9FD JUMP JUMPDEST PUSH2 0x21E PUSH2 0x427 CALLDATASIZE PUSH1 0x4 PUSH2 0x17ED JUMP JUMPDEST PUSH2 0xA3C JUMP JUMPDEST PUSH2 0x2CB PUSH2 0x43A CALLDATASIZE PUSH1 0x4 PUSH2 0x1898 JUMP JUMPDEST PUSH2 0xA4A JUMP JUMPDEST PUSH2 0x25F PUSH2 0x44D CALLDATASIZE PUSH1 0x4 PUSH2 0x1853 JUMP JUMPDEST PUSH2 0xA89 JUMP JUMPDEST PUSH2 0x25F PUSH1 0x0 DUP1 MLOAD PUSH1 0x20 PUSH2 0x1B15 DUP4 CODECOPY DUP2 MLOAD SWAP2 MSTORE DUP2 JUMP JUMPDEST PUSH2 0x2CB PUSH2 0x475 CALLDATASIZE PUSH1 0x4 PUSH2 0x186C JUMP JUMPDEST PUSH2 0xAA0 JUMP JUMPDEST PUSH2 0x25F PUSH2 0x488 CALLDATASIZE PUSH1 0x4 PUSH2 0x18D5 JUMP JUMPDEST PUSH2 0xAC5 JUMP JUMPDEST PUSH2 0x25F PUSH32 0x65D7A28E3265B37A6474929F336521B332C1681B933F6CB9F3376673440D862A DUP2 JUMP JUMPDEST PUSH2 0x2CB PUSH2 0x4C2 CALLDATASIZE PUSH1 0x4 PUSH2 0x1898 JUMP JUMPDEST PUSH2 0xAF0 JUMP JUMPDEST PUSH1 0x0 PUSH1 0x1 PUSH1 0x1 PUSH1 0xE0 SHL SUB NOT DUP3 AND PUSH4 0x5A05180F PUSH1 0xE0 SHL EQ DUP1 PUSH2 0x4EC JUMPI POP PUSH2 0x4EC DUP3 PUSH2 0xC2E JUMP JUMPDEST SWAP3 SWAP2 POP POP JUMP JUMPDEST PUSH1 0x60 PUSH1 0x5 DUP1 SLOAD PUSH2 0x501 SWAP1 PUSH2 0x18FF JUMP JUMPDEST DUP1 PUSH1 0x1F ADD PUSH1 0x20 DUP1 SWAP2 DIV MUL PUSH1 0x20 ADD PUSH1 0x40 MLOAD SWAP1 DUP2 ADD PUSH1 0x40 MSTORE DUP1 SWAP3 SWAP2 SWAP1 DUP2 DUP2 MSTORE PUSH1 0x20 ADD DUP3 DUP1 SLOAD PUSH2 0x52D SWAP1 PUSH2 0x18FF JUMP JUMPDEST DUP1 ISZERO PUSH2 0x57A JUMPI DUP1 PUSH1 0x1F LT PUSH2 0x54F JUMPI PUSH2 0x100 DUP1 DUP4 SLOAD DIV MUL DUP4 MSTORE SWAP2 PUSH1 0x20 ADD SWAP2 PUSH2 0x57A JUMP JUMPDEST DUP3 ADD SWAP2 SWAP1 PUSH1 0x0 MSTORE PUSH1 0x20 PUSH1 0x0 KECCAK256 SWAP1 JUMPDEST DUP2 SLOAD DUP2 MSTORE SWAP1 PUSH1 0x1 ADD SWAP1 PUSH1 0x20 ADD DUP1 DUP4 GT PUSH2 0x55D JUMPI DUP3 SWAP1 SUB PUSH1 0x1F AND DUP3 ADD SWAP2 JUMPDEST POP POP POP POP POP SWAP1 POP SWAP1 JUMP JUMPDEST PUSH1 0x0 CALLER PUSH2 0x592 DUP2 DUP6 DUP6 PUSH2 0xC63 JUMP JUMPDEST POP PUSH1 0x1 SWAP4 SWAP3 POP POP POP JUMP JUMPDEST PUSH1 0x0 CALLER PUSH2 0x5AA DUP6 DUP3 DUP6 PUSH2 0xD87 JUMP JUMPDEST PUSH2 0x5B5 DUP6 DUP6 DUP6 PUSH2 0xE01 JUMP JUMPDEST POP PUSH1 0x1 SWAP5 SWAP4 POP POP POP POP JUMP JUMPDEST PUSH1 0x0 DUP3 DUP2 MSTORE PUSH1 0x20 DUP2 SWAP1 MSTORE PUSH1 0x40 SWAP1 KECCAK256 PUSH1 0x1 ADD SLOAD PUSH2 0x5DB DUP2 PUSH2 0xFB7 JUMP JUMPDEST PUSH2 0x5E5 DUP4 DUP4 PUSH2 0xFC1 JUMP JUMPDEST POP POP POP JUMP JUMPDEST PUSH1 0x1 PUSH1 0x1 PUSH1 0xA0 SHL SUB DUP2 AND CALLER EQ PUSH2 0x65F JUMPI PUSH1 0x40 MLOAD PUSH3 0x461BCD PUSH1 0xE5 SHL DUP2 MSTORE PUSH1 0x20 PUSH1 0x4 DUP3 ADD MSTORE PUSH1 0x2F PUSH1 0x24 DUP3 ADD MSTORE PUSH32 0x416363657373436F6E74726F6C3A2063616E206F6E6C792072656E6F756E6365 PUSH1 0x44 DUP3 ADD MSTORE PUSH15 0x103937B632B9903337B91039B2B633 PUSH1 0x89 SHL PUSH1 0x64 DUP3 ADD MSTORE PUSH1 0x84 ADD JUMPDEST PUSH1 0x40 MLOAD DUP1 SWAP2 SUB SWAP1 REVERT JUMPDEST PUSH2 0x669 DUP3 DUP3 PUSH2 0xFE3 JUMP JUMPDEST POP POP JUMP JUMPDEST PUSH1 0x0 CALLER PUSH2 0x592 DUP2 DUP6 DUP6 PUSH2 0x680 DUP4 DUP4 PUSH2 0xAC5 JUMP JUMPDEST PUSH2 0x68A SWAP2 SWAP1 PUSH2 0x1950 JUMP JUMPDEST PUSH2 0xC63 JUMP JUMPDEST PUSH2 0x6B9 PUSH32 0x65D7A28E3265B37A6474929F336521B332C1681B933F6CB9F3376673440D862A CALLER PUSH2 0x8E6 JUMP JUMPDEST PUSH2 0x72B JUMPI PUSH1 0x40 MLOAD PUSH3 0x461BCD PUSH1 0xE5 SHL DUP2 MSTORE PUSH1 0x20 PUSH1 0x4 DUP3 ADD MSTORE PUSH1 0x39 PUSH1 0x24 DUP3 ADD MSTORE PUSH32 0x45524332305072657365744D696E7465725061757365723A206D757374206861 PUSH1 0x44 DUP3 ADD MSTORE PUSH32 0x76652070617573657220726F6C6520746F20756E706175736500000000000000 PUSH1 0x64 DUP3 ADD MSTORE PUSH1 0x84 ADD PUSH2 0x656 JUMP JUMPDEST PUSH2 0x733 PUSH2 0x1005 JUMP JUMPDEST JUMP JUMPDEST PUSH2 0x74D PUSH1 0x0 DUP1 MLOAD PUSH1 0x20 PUSH2 0x1B15 DUP4 CODECOPY DUP2 MLOAD SWAP2 MSTORE CALLER PUSH2 0x8E6 JUMP JUMPDEST PUSH2 0x7B8 JUMPI PUSH1 0x40 MLOAD PUSH3 0x461BCD PUSH1 0xE5 SHL DUP2 MSTORE PUSH1 0x20 PUSH1 0x4 DUP3 ADD MSTORE PUSH1 0x36 PUSH1 0x24 DUP3 ADD MSTORE PUSH32 0x45524332305072657365744D696E7465725061757365723A206D757374206861 PUSH1 0x44 DUP3 ADD MSTORE PUSH22 0x1D99481B5A5B9D195C881C9BDB19481D1BC81B5A5B9D PUSH1 0x52 SHL PUSH1 0x64 DUP3 ADD MSTORE PUSH1 0x84 ADD PUSH2 0x656 JUMP JUMPDEST PUSH2 0x669 DUP3 DUP3 PUSH2 0x1057 JUMP JUMPDEST PUSH2 0x7CC CALLER DUP3 PUSH2 0x1124 JUMP JUMPDEST POP JUMP JUMPDEST PUSH2 0x7DA PUSH1 0x0 CALLER PUSH2 0x8E6 JUMP JUMPDEST PUSH2 0x7F6 JUMPI PUSH1 0x40 MLOAD PUSH3 0x461BCD PUSH1 0xE5 SHL DUP2 MSTORE PUSH1 0x4 ADD PUSH2 0x656 SWAP1 PUSH2 0x1968 JUMP JUMPDEST PUSH2 0x7CC PUSH1 0x0 DUP1 MLOAD PUSH1 0x20 PUSH2 0x1B15 DUP4 CODECOPY DUP2 MLOAD SWAP2 MSTORE DUP3 PUSH2 0xFE3 JUMP JUMPDEST PUSH2 0x819 DUP3 CALLER DUP4 PUSH2 0xD87 JUMP JUMPDEST PUSH2 0x669 DUP3 DUP3 PUSH2 0x1124 JUMP JUMPDEST PUSH2 0x84D PUSH32 0x65D7A28E3265B37A6474929F336521B332C1681B933F6CB9F3376673440D862A CALLER PUSH2 0x8E6 JUMP JUMPDEST PUSH2 0x8BF JUMPI PUSH1 0x40 MLOAD PUSH3 0x461BCD PUSH1 0xE5 SHL DUP2 MSTORE PUSH1 0x20 PUSH1 0x4 DUP3 ADD MSTORE PUSH1 0x37 PUSH1 0x24 DUP3 ADD MSTORE PUSH32 0x45524332305072657365744D696E7465725061757365723A206D757374206861 PUSH1 0x44 DUP3 ADD MSTORE PUSH32 0x76652070617573657220726F6C6520746F207061757365000000000000000000 PUSH1 0x64 DUP3 ADD MSTORE PUSH1 0x84 ADD PUSH2 0x656 JUMP JUMPDEST PUSH2 0x733 PUSH2 0x1264 JUMP JUMPDEST PUSH1 0x0 DUP3 DUP2 MSTORE PUSH1 0x1 PUSH1 0x20 MSTORE PUSH1 0x40 DUP2 KECCAK256 PUSH2 0x8DF SWAP1 DUP4 PUSH2 0x12A1 JUMP JUMPDEST SWAP4 SWAP3 POP POP POP JUMP JUMPDEST PUSH1 0x0 SWAP2 DUP3 MSTORE PUSH1 0x20 DUP3 DUP2 MSTORE PUSH1 0x40 DUP1 DUP5 KECCAK256 PUSH1 0x1 PUSH1 0x1 PUSH1 0xA0 SHL SUB SWAP4 SWAP1 SWAP4 AND DUP5 MSTORE SWAP2 SWAP1 MSTORE SWAP1 KECCAK256 SLOAD PUSH1 0xFF AND SWAP1 JUMP JUMPDEST PUSH1 0x60 PUSH1 0x6 DUP1 SLOAD PUSH2 0x501 SWAP1 PUSH2 0x18FF JUMP JUMPDEST PUSH2 0x936 PUSH1 0x0 DUP1 MLOAD PUSH1 0x20 PUSH2 0x1AF5 DUP4 CODECOPY DUP2 MLOAD SWAP2 MSTORE CALLER PUSH2 0x8E6 JUMP JUMPDEST PUSH2 0x819 JUMPI PUSH1 0x40 MLOAD PUSH3 0x461BCD PUSH1 0xE5 SHL DUP2 MSTORE PUSH1 0x20 PUSH1 0x4 DUP3 ADD MSTORE PUSH1 0x1D PUSH1 0x24 DUP3 ADD MSTORE PUSH32 0x6D7573742068617665206275726E657220726F6C6520746F206275726E000000 PUSH1 0x44 DUP3 ADD MSTORE PUSH1 0x64 ADD PUSH2 0x656 JUMP JUMPDEST PUSH1 0x0 CALLER DUP2 PUSH2 0x990 DUP3 DUP7 PUSH2 0xAC5 JUMP JUMPDEST SWAP1 POP DUP4 DUP2 LT ISZERO PUSH2 0x9F0 JUMPI PUSH1 0x40 MLOAD PUSH3 0x461BCD PUSH1 0xE5 SHL DUP2 MSTORE PUSH1 0x20 PUSH1 0x4 DUP3 ADD MSTORE PUSH1 0x25 PUSH1 0x24 DUP3 ADD MSTORE PUSH32 0x45524332303A2064656372656173656420616C6C6F77616E63652062656C6F77 PUSH1 0x44 DUP3 ADD MSTORE PUSH5 0x207A65726F PUSH1 0xD8 SHL PUSH1 0x64 DUP3 ADD MSTORE PUSH1 0x84 ADD PUSH2 0x656 JUMP JUMPDEST PUSH2 0x5B5 DUP3 DUP7 DUP7 DUP5 SUB PUSH2 0xC63 JUMP JUMPDEST PUSH2 0xA08 PUSH1 0x0 CALLER PUSH2 0x8E6 JUMP JUMPDEST PUSH2 0xA24 JUMPI PUSH1 0x40 MLOAD PUSH3 0x461BCD PUSH1 0xE5 SHL DUP2 MSTORE PUSH1 0x4 ADD PUSH2 0x656 SWAP1 PUSH2 0x19AC JUMP JUMPDEST PUSH2 0x7CC PUSH1 0x0 DUP1 MLOAD PUSH1 0x20 PUSH2 0x1AF5 DUP4 CODECOPY DUP2 MLOAD SWAP2 MSTORE DUP3 PUSH2 0x12AD JUMP JUMPDEST PUSH1 0x0 CALLER PUSH2 0x592 DUP2 DUP6 DUP6 PUSH2 0xE01 JUMP JUMPDEST PUSH2 0xA55 PUSH1 0x0 CALLER PUSH2 0x8E6 JUMP JUMPDEST PUSH2 0xA71 JUMPI PUSH1 0x40 MLOAD PUSH3 0x461BCD PUSH1 0xE5 SHL DUP2 MSTORE PUSH1 0x4 ADD PUSH2 0x656 SWAP1 PUSH2 0x19AC JUMP JUMPDEST PUSH2 0x7CC PUSH1 0x0 DUP1 MLOAD PUSH1 0x20 PUSH2 0x1AF5 DUP4 CODECOPY DUP2 MLOAD SWAP2 MSTORE DUP3 PUSH2 0xFE3 JUMP JUMPDEST PUSH1 0x0 DUP2 DUP2 MSTORE PUSH1 0x1 PUSH1 0x20 MSTORE PUSH1 0x40 DUP2 KECCAK256 PUSH2 0x4EC SWAP1 PUSH2 0x12B7 JUMP JUMPDEST PUSH1 0x0 DUP3 DUP2 MSTORE PUSH1 0x20 DUP2 SWAP1 MSTORE PUSH1 0x40 SWAP1 KECCAK256 PUSH1 0x1 ADD SLOAD PUSH2 0xABB DUP2 PUSH2 0xFB7 JUMP JUMPDEST PUSH2 0x5E5 DUP4 DUP4 PUSH2 0xFE3 JUMP JUMPDEST PUSH1 0x1 PUSH1 0x1 PUSH1 0xA0 SHL SUB SWAP2 DUP3 AND PUSH1 0x0 SWAP1 DUP2 MSTORE PUSH1 0x3 PUSH1 0x20 SWAP1 DUP2 MSTORE PUSH1 0x40 DUP1 DUP4 KECCAK256 SWAP4 SWAP1 SWAP5 AND DUP3 MSTORE SWAP2 SWAP1 SWAP2 MSTORE KECCAK256 SLOAD SWAP1 JUMP JUMPDEST PUSH2 0xAFB PUSH1 0x0 CALLER PUSH2 0x8E6 JUMP JUMPDEST PUSH2 0xB17 JUMPI PUSH1 0x40 MLOAD PUSH3 0x461BCD PUSH1 0xE5 SHL DUP2 MSTORE PUSH1 0x4 ADD PUSH2 0x656 SWAP1 PUSH2 0x1968 JUMP JUMPDEST PUSH2 0x7CC PUSH1 0x0 DUP1 MLOAD PUSH1 0x20 PUSH2 0x1B15 DUP4 CODECOPY DUP2 MLOAD SWAP2 MSTORE DUP3 PUSH2 0x12AD JUMP JUMPDEST PUSH2 0xB39 DUP3 DUP3 PUSH2 0x8E6 JUMP JUMPDEST PUSH2 0x669 JUMPI PUSH1 0x0 DUP3 DUP2 MSTORE PUSH1 0x20 DUP2 DUP2 MSTORE PUSH1 0x40 DUP1 DUP4 KECCAK256 PUSH1 0x1 PUSH1 0x1 PUSH1 0xA0 SHL SUB DUP6 AND DUP5 MSTORE SWAP1 SWAP2 MSTORE SWAP1 KECCAK256 DUP1 SLOAD PUSH1 0xFF NOT AND PUSH1 0x1 OR SWAP1 SSTORE PUSH2 0xB6F CALLER SWAP1 JUMP JUMPDEST PUSH1 0x1 PUSH1 0x1 PUSH1 0xA0 SHL SUB AND DUP2 PUSH1 0x1 PUSH1 0x1 PUSH1 0xA0 SHL SUB AND DUP4 PUSH32 0x2F8788117E7EFF1D82E926EC794901D17C78024A50270940304540A733656F0D PUSH1 0x40 MLOAD PUSH1 0x40 MLOAD DUP1 SWAP2 SUB SWAP1 LOG4 POP POP JUMP JUMPDEST PUSH1 0x0 PUSH2 0x8DF DUP4 PUSH1 0x1 PUSH1 0x1 PUSH1 0xA0 SHL SUB DUP5 AND PUSH2 0x12C1 JUMP JUMPDEST PUSH1 0x7 SLOAD PUSH1 0xFF AND ISZERO PUSH2 0x5E5 JUMPI PUSH1 0x40 MLOAD PUSH3 0x461BCD PUSH1 0xE5 SHL DUP2 MSTORE PUSH1 0x20 PUSH1 0x4 DUP3 ADD MSTORE PUSH1 0x2A PUSH1 0x24 DUP3 ADD MSTORE PUSH32 0x45524332305061757361626C653A20746F6B656E207472616E73666572207768 PUSH1 0x44 DUP3 ADD MSTORE PUSH10 0x1A5B19481C185D5CD959 PUSH1 0xB2 SHL PUSH1 0x64 DUP3 ADD MSTORE PUSH1 0x84 ADD PUSH2 0x656 JUMP JUMPDEST PUSH1 0x0 PUSH1 0x1 PUSH1 0x1 PUSH1 0xE0 SHL SUB NOT DUP3 AND PUSH4 0x7965DB0B PUSH1 0xE0 SHL EQ DUP1 PUSH2 0x4EC JUMPI POP PUSH4 0x1FFC9A7 PUSH1 0xE0 SHL PUSH1 0x1 PUSH1 0x1 PUSH1 0xE0 SHL SUB NOT DUP4 AND EQ PUSH2 0x4EC JUMP JUMPDEST PUSH1 0x1 PUSH1 0x1 PUSH1 0xA0 SHL SUB DUP4 AND PUSH2 0xCC5 JUMPI PUSH1 0x40 MLOAD PUSH3 0x461BCD PUSH1 0xE5 SHL DUP2 MSTORE PUSH1 0x20 PUSH1 0x4 DUP3 ADD MSTORE PUSH1 0x24 DUP1 DUP3 ADD MSTORE PUSH32 0x45524332303A20617070726F76652066726F6D20746865207A65726F20616464 PUSH1 0x44 DUP3 ADD MSTORE PUSH4 0x72657373 PUSH1 0xE0 SHL PUSH1 0x64 DUP3 ADD MSTORE PUSH1 0x84 ADD PUSH2 0x656 JUMP JUMPDEST PUSH1 0x1 PUSH1 0x1 PUSH1 0xA0 SHL SUB DUP3 AND PUSH2 0xD26 JUMPI PUSH1 0x40 MLOAD PUSH3 0x461BCD PUSH1 0xE5 SHL DUP2 MSTORE PUSH1 0x20 PUSH1 0x4 DUP3 ADD MSTORE PUSH1 0x22 PUSH1 0x24 DUP3 ADD MSTORE PUSH32 0x45524332303A20617070726F766520746F20746865207A65726F206164647265 PUSH1 0x44 DUP3 ADD MSTORE PUSH2 0x7373 PUSH1 0xF0 SHL PUSH1 0x64 DUP3 ADD MSTORE PUSH1 0x84 ADD PUSH2 0x656 JUMP JUMPDEST PUSH1 0x1 PUSH1 0x1 PUSH1 0xA0 SHL SUB DUP4 DUP2 AND PUSH1 0x0 DUP2 DUP2 MSTORE PUSH1 0x3 PUSH1 0x20 SWAP1 DUP2 MSTORE PUSH1 0x40 DUP1 DUP4 KECCAK256 SWAP5 DUP8 AND DUP1 DUP5 MSTORE SWAP5 DUP3 MSTORE SWAP2 DUP3 SWAP1 KECCAK256 DUP6 SWAP1 SSTORE SWAP1 MLOAD DUP5 DUP2 MSTORE PUSH32 0x8C5BE1E5EBEC7D5BD14F71427D1E84F3DD0314C0F7B2291E5B200AC8C7C3B925 SWAP2 ADD PUSH1 0x40 MLOAD DUP1 SWAP2 SUB SWAP1 LOG3 POP POP POP JUMP JUMPDEST PUSH1 0x0 PUSH2 0xD93 DUP5 DUP5 PUSH2 0xAC5 JUMP JUMPDEST SWAP1 POP PUSH1 0x0 NOT DUP2 EQ PUSH2 0xDFB JUMPI DUP2 DUP2 LT ISZERO PUSH2 0xDEE JUMPI PUSH1 0x40 MLOAD PUSH3 0x461BCD PUSH1 0xE5 SHL DUP2 MSTORE PUSH1 0x20 PUSH1 0x4 DUP3 ADD MSTORE PUSH1 0x1D PUSH1 0x24 DUP3 ADD MSTORE PUSH32 0x45524332303A20696E73756666696369656E7420616C6C6F77616E6365000000 PUSH1 0x44 DUP3 ADD MSTORE PUSH1 0x64 ADD PUSH2 0x656 JUMP JUMPDEST PUSH2 0xDFB DUP5 DUP5 DUP5 DUP5 SUB PUSH2 0xC63 JUMP JUMPDEST POP POP POP POP JUMP JUMPDEST PUSH1 0x1 PUSH1 0x1 PUSH1 0xA0 SHL SUB DUP4 AND PUSH2 0xE65 JUMPI PUSH1 0x40 MLOAD PUSH3 0x461BCD PUSH1 0xE5 SHL DUP2 MSTORE PUSH1 0x20 PUSH1 0x4 DUP3 ADD MSTORE PUSH1 0x25 PUSH1 0x24 DUP3 ADD MSTORE PUSH32 0x45524332303A207472616E736665722066726F6D20746865207A65726F206164 PUSH1 0x44 DUP3 ADD MSTORE PUSH5 0x6472657373 PUSH1 0xD8 SHL PUSH1 0x64 DUP3 ADD MSTORE PUSH1 0x84 ADD PUSH2 0x656 JUMP JUMPDEST PUSH1 0x1 PUSH1 0x1 PUSH1 0xA0 SHL SUB DUP3 AND PUSH2 0xEC7 JUMPI PUSH1 0x40 MLOAD PUSH3 0x461BCD PUSH1 0xE5 SHL DUP2 MSTORE PUSH1 0x20 PUSH1 0x4 DUP3 ADD MSTORE PUSH1 0x23 PUSH1 0x24 DUP3 ADD MSTORE PUSH32 0x45524332303A207472616E7366657220746F20746865207A65726F2061646472 PUSH1 0x44 DUP3 ADD MSTORE PUSH3 0x657373 PUSH1 0xE8 SHL PUSH1 0x64 DUP3 ADD MSTORE PUSH1 0x84 ADD PUSH2 0x656 JUMP JUMPDEST PUSH2 0xED2 DUP4 DUP4 DUP4 PUSH2 0x1310 JUMP JUMPDEST PUSH1 0x1 PUSH1 0x1 PUSH1 0xA0 SHL SUB DUP4 AND PUSH1 0x0 SWAP1 DUP2 MSTORE PUSH1 0x2 PUSH1 0x20 MSTORE PUSH1 0x40 SWAP1 KECCAK256 SLOAD DUP2 DUP2 LT ISZERO PUSH2 0xF4A JUMPI PUSH1 0x40 MLOAD PUSH3 0x461BCD PUSH1 0xE5 SHL DUP2 MSTORE PUSH1 0x20 PUSH1 0x4 DUP3 ADD MSTORE PUSH1 0x26 PUSH1 0x24 DUP3 ADD MSTORE PUSH32 0x45524332303A207472616E7366657220616D6F756E7420657863656564732062 PUSH1 0x44 DUP3 ADD MSTORE PUSH6 0x616C616E6365 PUSH1 0xD0 SHL PUSH1 0x64 DUP3 ADD MSTORE PUSH1 0x84 ADD PUSH2 0x656 JUMP JUMPDEST PUSH1 0x1 PUSH1 0x1 PUSH1 0xA0 SHL SUB DUP1 DUP6 AND PUSH1 0x0 DUP2 DUP2 MSTORE PUSH1 0x2 PUSH1 0x20 MSTORE PUSH1 0x40 DUP1 DUP3 KECCAK256 DUP7 DUP7 SUB SWAP1 SSTORE SWAP3 DUP7 AND DUP1 DUP3 MSTORE SWAP1 DUP4 SWAP1 KECCAK256 DUP1 SLOAD DUP7 ADD SWAP1 SSTORE SWAP2 MLOAD PUSH32 0xDDF252AD1BE2C89B69C2B068FC378DAA952BA7F163C4A11628F55A4DF523B3EF SWAP1 PUSH2 0xFAA SWAP1 DUP7 DUP2 MSTORE PUSH1 0x20 ADD SWAP1 JUMP JUMPDEST PUSH1 0x40 MLOAD DUP1 SWAP2 SUB SWAP1 LOG3 PUSH2 0xDFB JUMP JUMPDEST PUSH2 0x7CC DUP2 CALLER PUSH2 0x131B JUMP JUMPDEST PUSH2 0xFCB DUP3 DUP3 PUSH2 0xB2F JUMP JUMPDEST PUSH1 0x0 DUP3 DUP2 MSTORE PUSH1 0x1 PUSH1 0x20 MSTORE PUSH1 0x40 SWAP1 KECCAK256 PUSH2 0x5E5 SWAP1 DUP3 PUSH2 0xBB3 JUMP JUMPDEST PUSH2 0xFED DUP3 DUP3 PUSH2 0x1374 JUMP JUMPDEST PUSH1 0x0 DUP3 DUP2 MSTORE PUSH1 0x1 PUSH1 0x20 MSTORE PUSH1 0x40 SWAP1 KECCAK256 PUSH2 0x5E5 SWAP1 DUP3 PUSH2 0x13D9 JUMP JUMPDEST PUSH2 0x100D PUSH2 0x13EE JUMP JUMPDEST PUSH1 0x7 DUP1 SLOAD PUSH1 0xFF NOT AND SWAP1 SSTORE PUSH32 0x5DB9EE0A495BF2E6FF9C91A7834C1BA4FDD244A5E8AA4E537BD38AEAE4B073AA CALLER JUMPDEST PUSH1 0x40 MLOAD PUSH1 0x1 PUSH1 0x1 PUSH1 0xA0 SHL SUB SWAP1 SWAP2 AND DUP2 MSTORE PUSH1 0x20 ADD PUSH1 0x40 MLOAD DUP1 SWAP2 SUB SWAP1 LOG1 JUMP JUMPDEST PUSH1 0x1 PUSH1 0x1 PUSH1 0xA0 SHL SUB DUP3 AND PUSH2 0x10AD JUMPI PUSH1 0x40 MLOAD PUSH3 0x461BCD PUSH1 0xE5 SHL DUP2 MSTORE PUSH1 0x20 PUSH1 0x4 DUP3 ADD MSTORE PUSH1 0x1F PUSH1 0x24 DUP3 ADD MSTORE PUSH32 0x45524332303A206D696E7420746F20746865207A65726F206164647265737300 PUSH1 0x44 DUP3 ADD MSTORE PUSH1 0x64 ADD PUSH2 0x656 JUMP JUMPDEST PUSH2 0x10B9 PUSH1 0x0 DUP4 DUP4 PUSH2 0x1310 JUMP JUMPDEST DUP1 PUSH1 0x4 PUSH1 0x0 DUP3 DUP3 SLOAD PUSH2 0x10CB SWAP2 SWAP1 PUSH2 0x1950 JUMP JUMPDEST SWAP1 SWAP2 SSTORE POP POP PUSH1 0x1 PUSH1 0x1 PUSH1 0xA0 SHL SUB DUP3 AND PUSH1 0x0 DUP2 DUP2 MSTORE PUSH1 0x2 PUSH1 0x20 SWAP1 DUP2 MSTORE PUSH1 0x40 DUP1 DUP4 KECCAK256 DUP1 SLOAD DUP7 ADD SWAP1 SSTORE MLOAD DUP5 DUP2 MSTORE PUSH32 0xDDF252AD1BE2C89B69C2B068FC378DAA952BA7F163C4A11628F55A4DF523B3EF SWAP2 ADD PUSH1 0x40 MLOAD DUP1 SWAP2 SUB SWAP1 LOG3 POP POP JUMP JUMPDEST PUSH1 0x1 PUSH1 0x1 PUSH1 0xA0 SHL SUB DUP3 AND PUSH2 0x1184 JUMPI PUSH1 0x40 MLOAD PUSH3 0x461BCD PUSH1 0xE5 SHL DUP2 MSTORE PUSH1 0x20 PUSH1 0x4 DUP3 ADD MSTORE PUSH1 0x21 PUSH1 0x24 DUP3 ADD MSTORE PUSH32 0x45524332303A206275726E2066726F6D20746865207A65726F20616464726573 PUSH1 0x44 DUP3 ADD MSTORE PUSH1 0x73 PUSH1 0xF8 SHL PUSH1 0x64 DUP3 ADD MSTORE PUSH1 0x84 ADD PUSH2 0x656 JUMP JUMPDEST PUSH2 0x1190 DUP3 PUSH1 0x0 DUP4 PUSH2 0x1310 JUMP JUMPDEST PUSH1 0x1 PUSH1 0x1 PUSH1 0xA0 SHL SUB DUP3 AND PUSH1 0x0 SWAP1 DUP2 MSTORE PUSH1 0x2 PUSH1 0x20 MSTORE PUSH1 0x40 SWAP1 KECCAK256 SLOAD DUP2 DUP2 LT ISZERO PUSH2 0x1204 JUMPI PUSH1 0x40 MLOAD PUSH3 0x461BCD PUSH1 0xE5 SHL DUP2 MSTORE PUSH1 0x20 PUSH1 0x4 DUP3 ADD MSTORE PUSH1 0x22 PUSH1 0x24 DUP3 ADD MSTORE PUSH32 0x45524332303A206275726E20616D6F756E7420657863656564732062616C616E PUSH1 0x44 DUP3 ADD MSTORE PUSH2 0x6365 PUSH1 0xF0 SHL PUSH1 0x64 DUP3 ADD MSTORE PUSH1 0x84 ADD PUSH2 0x656 JUMP JUMPDEST PUSH1 0x1 PUSH1 0x1 PUSH1 0xA0 SHL SUB DUP4 AND PUSH1 0x0 DUP2 DUP2 MSTORE PUSH1 0x2 PUSH1 0x20 SWAP1 DUP2 MSTORE PUSH1 0x40 DUP1 DUP4 KECCAK256 DUP7 DUP7 SUB SWAP1 SSTORE PUSH1 0x4 DUP1 SLOAD DUP8 SWAP1 SUB SWAP1 SSTORE MLOAD DUP6 DUP2 MSTORE SWAP2 SWAP3 SWAP2 PUSH32 0xDDF252AD1BE2C89B69C2B068FC378DAA952BA7F163C4A11628F55A4DF523B3EF SWAP2 ADD PUSH1 0x40 MLOAD DUP1 SWAP2 SUB SWAP1 LOG3 POP POP POP JUMP JUMPDEST PUSH2 0x126C PUSH2 0x1437 JUMP JUMPDEST PUSH1 0x7 DUP1 SLOAD PUSH1 0xFF NOT AND PUSH1 0x1 OR SWAP1 SSTORE PUSH32 0x62E78CEA01BEE320CD4E420270B5EA74000D11B0C9F74754EBDBFC544B05A258 PUSH2 0x103A CALLER SWAP1 JUMP JUMPDEST PUSH1 0x0 PUSH2 0x8DF DUP4 DUP4 PUSH2 0x147D JUMP JUMPDEST PUSH2 0x669 DUP3 DUP3 PUSH2 0xFC1 JUMP JUMPDEST PUSH1 0x0 PUSH2 0x4EC DUP3 SLOAD SWAP1 JUMP JUMPDEST PUSH1 0x0 DUP2 DUP2 MSTORE PUSH1 0x1 DUP4 ADD PUSH1 0x20 MSTORE PUSH1 0x40 DUP2 KECCAK256 SLOAD PUSH2 0x1308 JUMPI POP DUP2 SLOAD PUSH1 0x1 DUP2 DUP2 ADD DUP5 SSTORE PUSH1 0x0 DUP5 DUP2 MSTORE PUSH1 0x20 DUP1 DUP3 KECCAK256 SWAP1 SWAP4 ADD DUP5 SWAP1 SSTORE DUP5 SLOAD DUP5 DUP3 MSTORE DUP3 DUP7 ADD SWAP1 SWAP4 MSTORE PUSH1 0x40 SWAP1 KECCAK256 SWAP2 SWAP1 SWAP2 SSTORE PUSH2 0x4EC JUMP JUMPDEST POP PUSH1 0x0 PUSH2 0x4EC JUMP JUMPDEST PUSH2 0x5E5 DUP4 DUP4 DUP4 PUSH2 0xBC8 JUMP JUMPDEST PUSH2 0x1325 DUP3 DUP3 PUSH2 0x8E6 JUMP JUMPDEST PUSH2 0x669 JUMPI PUSH2 0x1332 DUP2 PUSH2 0x14A7 JUMP JUMPDEST PUSH2 0x133D DUP4 PUSH1 0x20 PUSH2 0x14B9 JUMP JUMPDEST PUSH1 0x40 MLOAD PUSH1 0x20 ADD PUSH2 0x134E SWAP3 SWAP2 SWAP1 PUSH2 0x19F0 JUMP JUMPDEST PUSH1 0x40 DUP1 MLOAD PUSH1 0x1F NOT DUP2 DUP5 SUB ADD DUP2 MSTORE SWAP1 DUP3 SWAP1 MSTORE PUSH3 0x461BCD PUSH1 0xE5 SHL DUP3 MSTORE PUSH2 0x656 SWAP2 PUSH1 0x4 ADD PUSH2 0x179E JUMP JUMPDEST PUSH2 0x137E DUP3 DUP3 PUSH2 0x8E6 JUMP JUMPDEST ISZERO PUSH2 0x669 JUMPI PUSH1 0x0 DUP3 DUP2 MSTORE PUSH1 0x20 DUP2 DUP2 MSTORE PUSH1 0x40 DUP1 DUP4 KECCAK256 PUSH1 0x1 PUSH1 0x1 PUSH1 0xA0 SHL SUB DUP6 AND DUP1 DUP6 MSTORE SWAP3 MSTORE DUP1 DUP4 KECCAK256 DUP1 SLOAD PUSH1 0xFF NOT AND SWAP1 SSTORE MLOAD CALLER SWAP3 DUP6 SWAP2 PUSH32 0xF6391F5C32D9C69D2A47EA670B442974B53935D1EDC7FD64EB21E047A839171B SWAP2 SWAP1 LOG4 POP POP JUMP JUMPDEST PUSH1 0x0 PUSH2 0x8DF DUP4 PUSH1 0x1 PUSH1 0x1 PUSH1 0xA0 SHL SUB DUP5 AND PUSH2 0x1655 JUMP JUMPDEST PUSH1 0x7 SLOAD PUSH1 0xFF AND PUSH2 0x733 JUMPI PUSH1 0x40 MLOAD PUSH3 0x461BCD PUSH1 0xE5 SHL DUP2 MSTORE PUSH1 0x20 PUSH1 0x4 DUP3 ADD MSTORE PUSH1 0x14 PUSH1 0x24 DUP3 ADD MSTORE PUSH20 0x14185D5CD8589B194E881B9BDD081C185D5CD959 PUSH1 0x62 SHL PUSH1 0x44 DUP3 ADD MSTORE PUSH1 0x64 ADD PUSH2 0x656 JUMP JUMPDEST PUSH1 0x7 SLOAD PUSH1 0xFF AND ISZERO PUSH2 0x733 JUMPI PUSH1 0x40 MLOAD PUSH3 0x461BCD PUSH1 0xE5 SHL DUP2 MSTORE PUSH1 0x20 PUSH1 0x4 DUP3 ADD MSTORE PUSH1 0x10 PUSH1 0x24 DUP3 ADD MSTORE PUSH16 0x14185D5CD8589B194E881C185D5CD959 PUSH1 0x82 SHL PUSH1 0x44 DUP3 ADD MSTORE PUSH1 0x64 ADD PUSH2 0x656 JUMP JUMPDEST PUSH1 0x0 DUP3 PUSH1 0x0 ADD DUP3 DUP2 SLOAD DUP2 LT PUSH2 0x1494 JUMPI PUSH2 0x1494 PUSH2 0x1A65 JUMP JUMPDEST SWAP1 PUSH1 0x0 MSTORE PUSH1 0x20 PUSH1 0x0 KECCAK256 ADD SLOAD SWAP1 POP SWAP3 SWAP2 POP POP JUMP JUMPDEST PUSH1 0x60 PUSH2 0x4EC PUSH1 0x1 PUSH1 0x1 PUSH1 0xA0 SHL SUB DUP4 AND PUSH1 0x14 JUMPDEST PUSH1 0x60 PUSH1 0x0 PUSH2 0x14C8 DUP4 PUSH1 0x2 PUSH2 0x1A7B JUMP JUMPDEST PUSH2 0x14D3 SWAP1 PUSH1 0x2 PUSH2 0x1950 JUMP JUMPDEST PUSH8 0xFFFFFFFFFFFFFFFF DUP2 GT ISZERO PUSH2 0x14EB JUMPI PUSH2 0x14EB PUSH2 0x1A9A JUMP JUMPDEST PUSH1 0x40 MLOAD SWAP1 DUP1 DUP3 MSTORE DUP1 PUSH1 0x1F ADD PUSH1 0x1F NOT AND PUSH1 0x20 ADD DUP3 ADD PUSH1 0x40 MSTORE DUP1 ISZERO PUSH2 0x1515 JUMPI PUSH1 0x20 DUP3 ADD DUP2 DUP1 CALLDATASIZE DUP4 CALLDATACOPY ADD SWAP1 POP JUMPDEST POP SWAP1 POP PUSH1 0x3 PUSH1 0xFC SHL DUP2 PUSH1 0x0 DUP2 MLOAD DUP2 LT PUSH2 0x1530 JUMPI PUSH2 0x1530 PUSH2 0x1A65 JUMP JUMPDEST PUSH1 0x20 ADD ADD SWAP1 PUSH1 0x1 PUSH1 0x1 PUSH1 0xF8 SHL SUB NOT AND SWAP1 DUP2 PUSH1 0x0 BYTE SWAP1 MSTORE8 POP PUSH1 0xF PUSH1 0xFB SHL DUP2 PUSH1 0x1 DUP2 MLOAD DUP2 LT PUSH2 0x155F JUMPI PUSH2 0x155F PUSH2 0x1A65 JUMP JUMPDEST PUSH1 0x20 ADD ADD SWAP1 PUSH1 0x1 PUSH1 0x1 PUSH1 0xF8 SHL SUB NOT AND SWAP1 DUP2 PUSH1 0x0 BYTE SWAP1 MSTORE8 POP PUSH1 0x0 PUSH2 0x1583 DUP5 PUSH1 0x2 PUSH2 0x1A7B JUMP JUMPDEST PUSH2 0x158E SWAP1 PUSH1 0x1 PUSH2 0x1950 JUMP JUMPDEST SWAP1 POP JUMPDEST PUSH1 0x1 DUP2 GT ISZERO PUSH2 0x1606 JUMPI PUSH16 0x181899199A1A9B1B9C1CB0B131B232B3 PUSH1 0x81 SHL DUP6 PUSH1 0xF AND PUSH1 0x10 DUP2 LT PUSH2 0x15C2 JUMPI PUSH2 0x15C2 PUSH2 0x1A65 JUMP JUMPDEST BYTE PUSH1 0xF8 SHL DUP3 DUP3 DUP2 MLOAD DUP2 LT PUSH2 0x15D8 JUMPI PUSH2 0x15D8 PUSH2 0x1A65 JUMP JUMPDEST PUSH1 0x20 ADD ADD SWAP1 PUSH1 0x1 PUSH1 0x1 PUSH1 0xF8 SHL SUB NOT AND SWAP1 DUP2 PUSH1 0x0 BYTE SWAP1 MSTORE8 POP PUSH1 0x4 SWAP5 SWAP1 SWAP5 SHR SWAP4 PUSH2 0x15FF DUP2 PUSH2 0x1AB0 JUMP JUMPDEST SWAP1 POP PUSH2 0x1591 JUMP JUMPDEST POP DUP4 ISZERO PUSH2 0x8DF JUMPI PUSH1 0x40 MLOAD PUSH3 0x461BCD PUSH1 0xE5 SHL DUP2 MSTORE PUSH1 0x20 PUSH1 0x4 DUP3 ADD DUP2 SWAP1 MSTORE PUSH1 0x24 DUP3 ADD MSTORE PUSH32 0x537472696E67733A20686578206C656E67746820696E73756666696369656E74 PUSH1 0x44 DUP3 ADD MSTORE PUSH1 0x64 ADD PUSH2 0x656 JUMP JUMPDEST PUSH1 0x0 DUP2 DUP2 MSTORE PUSH1 0x1 DUP4 ADD PUSH1 0x20 MSTORE PUSH1 0x40 DUP2 KECCAK256 SLOAD DUP1 ISZERO PUSH2 0x173E JUMPI PUSH1 0x0 PUSH2 0x1679 PUSH1 0x1 DUP4 PUSH2 0x1AC7 JUMP JUMPDEST DUP6 SLOAD SWAP1 SWAP2 POP PUSH1 0x0 SWAP1 PUSH2 0x168D SWAP1 PUSH1 0x1 SWAP1 PUSH2 0x1AC7 JUMP JUMPDEST SWAP1 POP DUP2 DUP2 EQ PUSH2 0x16F2 JUMPI PUSH1 0x0 DUP7 PUSH1 0x0 ADD DUP3 DUP2 SLOAD DUP2 LT PUSH2 0x16AD JUMPI PUSH2 0x16AD PUSH2 0x1A65 JUMP JUMPDEST SWAP1 PUSH1 0x0 MSTORE PUSH1 0x20 PUSH1 0x0 KECCAK256 ADD SLOAD SWAP1 POP DUP1 DUP8 PUSH1 0x0 ADD DUP5 DUP2 SLOAD DUP2 LT PUSH2 0x16D0 JUMPI PUSH2 0x16D0 PUSH2 0x1A65 JUMP JUMPDEST PUSH1 0x0 SWAP2 DUP3 MSTORE PUSH1 0x20 DUP1 DUP4 KECCAK256 SWAP1 SWAP2 ADD SWAP3 SWAP1 SWAP3 SSTORE SWAP2 DUP3 MSTORE PUSH1 0x1 DUP9 ADD SWAP1 MSTORE PUSH1 0x40 SWAP1 KECCAK256 DUP4 SWAP1 SSTORE JUMPDEST DUP6 SLOAD DUP7 SWAP1 DUP1 PUSH2 0x1703 JUMPI PUSH2 0x1703 PUSH2 0x1ADE JUMP JUMPDEST PUSH1 0x1 SWAP1 SUB DUP2 DUP2 SWAP1 PUSH1 0x0 MSTORE PUSH1 0x20 PUSH1 0x0 KECCAK256 ADD PUSH1 0x0 SWAP1 SSTORE SWAP1 SSTORE DUP6 PUSH1 0x1 ADD PUSH1 0x0 DUP7 DUP2 MSTORE PUSH1 0x20 ADD SWAP1 DUP2 MSTORE PUSH1 0x20 ADD PUSH1 0x0 KECCAK256 PUSH1 0x0 SWAP1 SSTORE PUSH1 0x1 SWAP4 POP POP POP POP PUSH2 0x4EC JUMP JUMPDEST PUSH1 0x0 SWAP2 POP POP PUSH2 0x4EC JUMP JUMPDEST PUSH1 0x0 PUSH1 0x20 DUP3 DUP5 SUB SLT ISZERO PUSH2 0x175A JUMPI PUSH1 0x0 DUP1 REVERT JUMPDEST DUP2 CALLDATALOAD PUSH1 0x1 PUSH1 0x1 PUSH1 0xE0 SHL SUB NOT DUP2 AND DUP2 EQ PUSH2 0x8DF JUMPI PUSH1 0x0 DUP1 REVERT JUMPDEST PUSH1 0x0 JUMPDEST DUP4 DUP2 LT ISZERO PUSH2 0x178D JUMPI DUP2 DUP2 ADD MLOAD DUP4 DUP3 ADD MSTORE PUSH1 0x20 ADD PUSH2 0x1775 JUMP JUMPDEST DUP4 DUP2 GT ISZERO PUSH2 0xDFB JUMPI POP POP PUSH1 0x0 SWAP2 ADD MSTORE JUMP JUMPDEST PUSH1 0x20 DUP2 MSTORE PUSH1 0x0 DUP3 MLOAD DUP1 PUSH1 0x20 DUP5 ADD MSTORE PUSH2 0x17BD DUP2 PUSH1 0x40 DUP6 ADD PUSH1 0x20 DUP8 ADD PUSH2 0x1772 JUMP JUMPDEST PUSH1 0x1F ADD PUSH1 0x1F NOT AND SWAP2 SWAP1 SWAP2 ADD PUSH1 0x40 ADD SWAP3 SWAP2 POP POP JUMP JUMPDEST DUP1 CALLDATALOAD PUSH1 0x1 PUSH1 0x1 PUSH1 0xA0 SHL SUB DUP2 AND DUP2 EQ PUSH2 0x17E8 JUMPI PUSH1 0x0 DUP1 REVERT JUMPDEST SWAP2 SWAP1 POP JUMP JUMPDEST PUSH1 0x0 DUP1 PUSH1 0x40 DUP4 DUP6 SUB SLT ISZERO PUSH2 0x1800 JUMPI PUSH1 0x0 DUP1 REVERT JUMPDEST PUSH2 0x1809 DUP4 PUSH2 0x17D1 JUMP JUMPDEST SWAP5 PUSH1 0x20 SWAP4 SWAP1 SWAP4 ADD CALLDATALOAD SWAP4 POP POP POP JUMP JUMPDEST PUSH1 0x0 DUP1 PUSH1 0x0 PUSH1 0x60 DUP5 DUP7 SUB SLT ISZERO PUSH2 0x182C JUMPI PUSH1 0x0 DUP1 REVERT JUMPDEST PUSH2 0x1835 DUP5 PUSH2 0x17D1 JUMP JUMPDEST SWAP3 POP PUSH2 0x1843 PUSH1 0x20 DUP6 ADD PUSH2 0x17D1 JUMP JUMPDEST SWAP2 POP PUSH1 0x40 DUP5 ADD CALLDATALOAD SWAP1 POP SWAP3 POP SWAP3 POP SWAP3 JUMP JUMPDEST PUSH1 0x0 PUSH1 0x20 DUP3 DUP5 SUB SLT ISZERO PUSH2 0x1865 JUMPI PUSH1 0x0 DUP1 REVERT JUMPDEST POP CALLDATALOAD SWAP2 SWAP1 POP JUMP JUMPDEST PUSH1 0x0 DUP1 PUSH1 0x40 DUP4 DUP6 SUB SLT ISZERO PUSH2 0x187F JUMPI PUSH1 0x0 DUP1 REVERT JUMPDEST DUP3 CALLDATALOAD SWAP2 POP PUSH2 0x188F PUSH1 0x20 DUP5 ADD PUSH2 0x17D1 JUMP JUMPDEST SWAP1 POP SWAP3 POP SWAP3 SWAP1 POP JUMP JUMPDEST PUSH1 0x0 PUSH1 0x20 DUP3 DUP5 SUB SLT ISZERO PUSH2 0x18AA JUMPI PUSH1 0x0 DUP1 REVERT JUMPDEST PUSH2 0x8DF DUP3 PUSH2 0x17D1 JUMP JUMPDEST PUSH1 0x0 DUP1 PUSH1 0x40 DUP4 DUP6 SUB SLT ISZERO PUSH2 0x18C6 JUMPI PUSH1 0x0 DUP1 REVERT JUMPDEST POP POP DUP1 CALLDATALOAD SWAP3 PUSH1 0x20 SWAP1 SWAP2 ADD CALLDATALOAD SWAP2 POP JUMP JUMPDEST PUSH1 0x0 DUP1 PUSH1 0x40 DUP4 DUP6 SUB SLT ISZERO PUSH2 0x18E8 JUMPI PUSH1 0x0 DUP1 REVERT JUMPDEST PUSH2 0x18F1 DUP4 PUSH2 0x17D1 JUMP JUMPDEST SWAP2 POP PUSH2 0x188F PUSH1 0x20 DUP5 ADD PUSH2 0x17D1 JUMP JUMPDEST PUSH1 0x1 DUP2 DUP2 SHR SWAP1 DUP3 AND DUP1 PUSH2 0x1913 JUMPI PUSH1 0x7F DUP3 AND SWAP2 POP JUMPDEST PUSH1 0x20 DUP3 LT DUP2 EQ ISZERO PUSH2 0x1934 JUMPI PUSH4 0x4E487B71 PUSH1 0xE0 SHL PUSH1 0x0 MSTORE PUSH1 0x22 PUSH1 0x4 MSTORE PUSH1 0x24 PUSH1 0x0 REVERT JUMPDEST POP SWAP2 SWAP1 POP JUMP JUMPDEST PUSH4 0x4E487B71 PUSH1 0xE0 SHL PUSH1 0x0 MSTORE PUSH1 0x11 PUSH1 0x4 MSTORE PUSH1 0x24 PUSH1 0x0 REVERT JUMPDEST PUSH1 0x0 DUP3 NOT DUP3 GT ISZERO PUSH2 0x1963 JUMPI PUSH2 0x1963 PUSH2 0x193A JUMP JUMPDEST POP ADD SWAP1 JUMP JUMPDEST PUSH1 0x20 DUP1 DUP3 MSTORE PUSH1 0x24 SWAP1 DUP3 ADD MSTORE PUSH32 0x6D75737420686176652061646D696E20726F6C6520746F207365747570206D69 PUSH1 0x40 DUP3 ADD MSTORE PUSH4 0x373A32B9 PUSH1 0xE1 SHL PUSH1 0x60 DUP3 ADD MSTORE PUSH1 0x80 ADD SWAP1 JUMP JUMPDEST PUSH1 0x20 DUP1 DUP3 MSTORE PUSH1 0x24 SWAP1 DUP3 ADD MSTORE PUSH32 0x6D75737420686176652061646D696E20726F6C6520746F207365747570206275 PUSH1 0x40 DUP3 ADD MSTORE PUSH4 0x393732B9 PUSH1 0xE1 SHL PUSH1 0x60 DUP3 ADD MSTORE PUSH1 0x80 ADD SWAP1 JUMP JUMPDEST PUSH32 0x416363657373436F6E74726F6C3A206163636F756E7420000000000000000000 DUP2 MSTORE PUSH1 0x0 DUP4 MLOAD PUSH2 0x1A28 DUP2 PUSH1 0x17 DUP6 ADD PUSH1 0x20 DUP9 ADD PUSH2 0x1772 JUMP JUMPDEST PUSH17 0x1034B99036B4B9B9B4B733903937B6329 PUSH1 0x7D SHL PUSH1 0x17 SWAP2 DUP5 ADD SWAP2 DUP3 ADD MSTORE DUP4 MLOAD PUSH2 0x1A59 DUP2 PUSH1 0x28 DUP5 ADD PUSH1 0x20 DUP9 ADD PUSH2 0x1772 JUMP JUMPDEST ADD PUSH1 0x28 ADD SWAP5 SWAP4 POP POP POP POP JUMP JUMPDEST PUSH4 0x4E487B71 PUSH1 0xE0 SHL PUSH1 0x0 MSTORE PUSH1 0x32 PUSH1 0x4 MSTORE PUSH1 0x24 PUSH1 0x0 REVERT JUMPDEST PUSH1 0x0 DUP2 PUSH1 0x0 NOT DIV DUP4 GT DUP3 ISZERO ISZERO AND ISZERO PUSH2 0x1A95 JUMPI PUSH2 0x1A95 PUSH2 0x193A JUMP JUMPDEST POP MUL SWAP1 JUMP JUMPDEST PUSH4 0x4E487B71 PUSH1 0xE0 SHL PUSH1 0x0 MSTORE PUSH1 0x41 PUSH1 0x4 MSTORE PUSH1 0x24 PUSH1 0x0 REVERT JUMPDEST PUSH1 0x0 DUP2 PUSH2 0x1ABF JUMPI PUSH2 0x1ABF PUSH2 0x193A JUMP JUMPDEST POP PUSH1 0x0 NOT ADD SWAP1 JUMP JUMPDEST PUSH1 0x0 DUP3 DUP3 LT ISZERO PUSH2 0x1AD9 JUMPI PUSH2 0x1AD9 PUSH2 0x193A JUMP JUMPDEST POP SUB SWAP1 JUMP JUMPDEST PUSH4 0x4E487B71 PUSH1 0xE0 SHL PUSH1 0x0 MSTORE PUSH1 0x31 PUSH1 0x4 MSTORE PUSH1 0x24 PUSH1 0x0 REVERT INVALID EXTCODECOPY GT 0xD1 PUSH13 0xBAFFD01DF69CE1C404F6340EE0 JUMPI 0x49 DUP16 0x5F STOP 0x24 PUSH2 0x90EA SLOAD 0x22 SDIV PUSH23 0xA8489F2DF0FED2C77648DE5860A4CC508CD0818C85B8B8 LOG1 0xAB 0x4C 0xEE 0xEF DUP14 SWAP9 SHR DUP10 JUMP 0xA6 LOG2 PUSH5 0x6970667358 0x22 SLT KECCAK256 RETURNDATACOPY 0xDE DUP15 0xBA 0xA8 PUSH8 0x2ED1041B596F7472 PUSH14 0x84C71653159910268E30787CBF8E 0xE9 0xCC 0xDC PUSH5 0x736F6C6343 STOP ADDMOD MULMOD STOP CALLER SWAP16 0x2D CREATE INVALID 0xD2 0xC7 PUSH23 0x48DE5860A4CC508CD0818C85B8B8A1AB4CEEEF8D981C89 JUMP 0xA6 "},"methodIdentifiers":{"BURNER_ROLE()":"282c51f3","DEFAULT_ADMIN_ROLE()":"a217fddf","MINTER_ROLE()":"d5391393","PAUSER_ROLE()":"e63ab1e9","allowance(address,address)":"dd62ed3e","approve(address,uint256)":"095ea7b3","balanceOf(address)":"70a08231","burn(address,uint256)":"9dc29fac","burn(uint256)":"42966c68","burnFrom(address,uint256)":"79cc6790","decimals()":"313ce567","decreaseAllowance(address,uint256)":"a457c2d7","getRoleAdmin(bytes32)":"248a9ca3","getRoleMember(bytes32,uint256)":"9010d07c","getRoleMemberCount(bytes32)":"ca15c873","grantRole(bytes32,address)":"2f2ff15d","hasRole(bytes32,address)":"91d14854","increaseAllowance(address,uint256)":"39509351","mint(address,uint256)":"40c10f19","name()":"06fdde03","pause()":"8456cb59","paused()":"5c975abb","renounceRole(bytes32,address)":"36568abe","revokeBurnerRole(address)":"c3052ffc","revokeMinterRole(address)":"69e2f0fb","revokeRole(bytes32,address)":"d547741f","setupBurnerRole(address)":"a6115b69","setupMinterRole(address)":"fcce8372","supportsInterface(bytes4)":"01ffc9a7","symbol()":"95d89b41","totalSupply()":"18160ddd","transfer(address,uint256)":"a9059cbb","transferFrom(address,address,uint256)":"23b872dd","unpause()":"3f4ba83a"}}}}}